{
  "contractName": "BasicEvidencingToken",
  "abi": [
    {
      "inputs": [],
      "stateMutability": "nonpayable",
      "type": "constructor"
    },
    {
      "anonymous": false,
      "inputs": [
        {
          "indexed": true,
          "internalType": "address",
          "name": "owner",
          "type": "address"
        },
        {
          "indexed": true,
          "internalType": "address",
          "name": "approved",
          "type": "address"
        },
        {
          "indexed": true,
          "internalType": "uint256",
          "name": "tokenId",
          "type": "uint256"
        }
      ],
      "name": "Approval",
      "type": "event"
    },
    {
      "anonymous": false,
      "inputs": [
        {
          "indexed": true,
          "internalType": "address",
          "name": "owner",
          "type": "address"
        },
        {
          "indexed": true,
          "internalType": "address",
          "name": "operator",
          "type": "address"
        },
        {
          "indexed": false,
          "internalType": "bool",
          "name": "approved",
          "type": "bool"
        }
      ],
      "name": "ApprovalForAll",
      "type": "event"
    },
    {
      "anonymous": false,
      "inputs": [
        {
          "indexed": false,
          "internalType": "address",
          "name": "sender",
          "type": "address"
        },
        {
          "indexed": false,
          "internalType": "address",
          "name": "addressToAllow",
          "type": "address"
        }
      ],
      "name": "AssignedAllowedServiceEvent",
      "type": "event"
    },
    {
      "anonymous": false,
      "inputs": [
        {
          "indexed": false,
          "internalType": "address",
          "name": "creator",
          "type": "address"
        },
        {
          "indexed": false,
          "internalType": "uint256",
          "name": "fromHash",
          "type": "uint256"
        },
        {
          "indexed": false,
          "internalType": "uint256",
          "name": "toHash",
          "type": "uint256"
        },
        {
          "indexed": false,
          "internalType": "uint256",
          "name": "tokenId",
          "type": "uint256"
        }
      ],
      "name": "MintedHashMapEvidence",
      "type": "event"
    },
    {
      "anonymous": false,
      "inputs": [
        {
          "indexed": true,
          "internalType": "address",
          "name": "previousOwner",
          "type": "address"
        },
        {
          "indexed": true,
          "internalType": "address",
          "name": "newOwner",
          "type": "address"
        }
      ],
      "name": "OwnershipTransferred",
      "type": "event"
    },
    {
      "anonymous": false,
      "inputs": [
        {
          "indexed": true,
          "internalType": "address",
          "name": "from",
          "type": "address"
        },
        {
          "indexed": true,
          "internalType": "address",
          "name": "to",
          "type": "address"
        },
        {
          "indexed": true,
          "internalType": "uint256",
          "name": "tokenId",
          "type": "uint256"
        }
      ],
      "name": "Transfer",
      "type": "event"
    },
    {
      "anonymous": false,
      "inputs": [
        {
          "indexed": false,
          "internalType": "address",
          "name": "sender",
          "type": "address"
        },
        {
          "indexed": false,
          "internalType": "address",
          "name": "addressToUnassign",
          "type": "address"
        }
      ],
      "name": "UnassignedAllowedServiceEvent",
      "type": "event"
    },
    {
      "inputs": [],
      "name": "owner",
      "outputs": [
        {
          "internalType": "address",
          "name": "",
          "type": "address"
        }
      ],
      "stateMutability": "view",
      "type": "function"
    },
    {
      "inputs": [],
      "name": "renounceOwnership",
      "outputs": [],
      "stateMutability": "nonpayable",
      "type": "function"
    },
    {
      "inputs": [
        {
          "internalType": "address",
          "name": "newOwner",
          "type": "address"
        }
      ],
      "name": "transferOwnership",
      "outputs": [],
      "stateMutability": "nonpayable",
      "type": "function"
    },
    {
      "inputs": [
        {
          "internalType": "string",
          "name": "uri",
          "type": "string"
        }
      ],
      "name": "setBaseURI",
      "outputs": [],
      "stateMutability": "nonpayable",
      "type": "function"
    },
    {
      "inputs": [],
      "name": "getIsSelfEvidencingActive",
      "outputs": [
        {
          "internalType": "bool",
          "name": "",
          "type": "bool"
        }
      ],
      "stateMutability": "view",
      "type": "function"
    },
    {
      "inputs": [],
      "name": "setIsSelfEvidencingActive",
      "outputs": [],
      "stateMutability": "nonpayable",
      "type": "function"
    },
    {
      "inputs": [],
      "name": "setIsSelfEvidencingInactive",
      "outputs": [],
      "stateMutability": "nonpayable",
      "type": "function"
    },
    {
      "inputs": [
        {
          "internalType": "address",
          "name": "addressToAllow",
          "type": "address"
        }
      ],
      "name": "assignAllowedService",
      "outputs": [],
      "stateMutability": "nonpayable",
      "type": "function"
    },
    {
      "inputs": [
        {
          "internalType": "address",
          "name": "addressToUnassign",
          "type": "address"
        }
      ],
      "name": "unassignAllowedService",
      "outputs": [],
      "stateMutability": "nonpayable",
      "type": "function"
    },
    {
      "inputs": [
        {
          "internalType": "uint256",
          "name": "fromHash",
          "type": "uint256"
        },
        {
          "internalType": "uint256",
          "name": "toHash",
          "type": "uint256"
        }
      ],
      "name": "mintHashMapEvidence",
      "outputs": [],
      "stateMutability": "nonpayable",
      "type": "function"
    },
    {
      "inputs": [
        {
          "internalType": "uint256",
          "name": "evidenceHash",
          "type": "uint256"
        }
      ],
      "name": "mintSelfEvidence",
      "outputs": [],
      "stateMutability": "payable",
      "type": "function"
    },
    {
      "inputs": [
        {
          "internalType": "uint256",
          "name": "tokenId",
          "type": "uint256"
        }
      ],
      "name": "evidenceByTokenId",
      "outputs": [
        {
          "internalType": "uint256",
          "name": "",
          "type": "uint256"
        }
      ],
      "stateMutability": "view",
      "type": "function"
    },
    {
      "inputs": [
        {
          "internalType": "uint256",
          "name": "fromHash",
          "type": "uint256"
        }
      ],
      "name": "verifyEvidenceHashMap",
      "outputs": [
        {
          "internalType": "uint256",
          "name": "",
          "type": "uint256"
        }
      ],
      "stateMutability": "view",
      "type": "function"
    },
    {
      "inputs": [
        {
          "internalType": "uint256",
          "name": "evidenceHash",
          "type": "uint256"
        }
      ],
      "name": "verifySelfEvidence",
      "outputs": [
        {
          "internalType": "uint256",
          "name": "",
          "type": "uint256"
        },
        {
          "internalType": "uint256",
          "name": "",
          "type": "uint256"
        },
        {
          "internalType": "uint256",
          "name": "",
          "type": "uint256"
        }
      ],
      "stateMutability": "view",
      "type": "function"
    },
    {
      "inputs": [],
      "name": "totalSupply",
      "outputs": [
        {
          "internalType": "uint256",
          "name": "",
          "type": "uint256"
        }
      ],
      "stateMutability": "view",
      "type": "function"
    },
    {
      "inputs": [
        {
          "internalType": "bytes4",
          "name": "interfaceId",
          "type": "bytes4"
        }
      ],
      "name": "supportsInterface",
      "outputs": [
        {
          "internalType": "bool",
          "name": "",
          "type": "bool"
        }
      ],
      "stateMutability": "view",
      "type": "function"
    },
    {
      "inputs": [
        {
          "internalType": "address",
          "name": "owner",
          "type": "address"
        }
      ],
      "name": "balanceOf",
      "outputs": [
        {
          "internalType": "uint256",
          "name": "",
          "type": "uint256"
        }
      ],
      "stateMutability": "view",
      "type": "function"
    },
    {
      "inputs": [
        {
          "internalType": "uint256",
          "name": "tokenId",
          "type": "uint256"
        }
      ],
      "name": "ownerOf",
      "outputs": [
        {
          "internalType": "address",
          "name": "",
          "type": "address"
        }
      ],
      "stateMutability": "view",
      "type": "function"
    },
    {
      "inputs": [],
      "name": "name",
      "outputs": [
        {
          "internalType": "string",
          "name": "",
          "type": "string"
        }
      ],
      "stateMutability": "view",
      "type": "function"
    },
    {
      "inputs": [],
      "name": "symbol",
      "outputs": [
        {
          "internalType": "string",
          "name": "",
          "type": "string"
        }
      ],
      "stateMutability": "view",
      "type": "function"
    },
    {
      "inputs": [
        {
          "internalType": "uint256",
          "name": "tokenId",
          "type": "uint256"
        }
      ],
      "name": "tokenURI",
      "outputs": [
        {
          "internalType": "string",
          "name": "",
          "type": "string"
        }
      ],
      "stateMutability": "view",
      "type": "function"
    },
    {
      "inputs": [
        {
          "internalType": "address",
          "name": "to",
          "type": "address"
        },
        {
          "internalType": "uint256",
          "name": "tokenId",
          "type": "uint256"
        }
      ],
      "name": "approve",
      "outputs": [],
      "stateMutability": "nonpayable",
      "type": "function"
    },
    {
      "inputs": [
        {
          "internalType": "uint256",
          "name": "tokenId",
          "type": "uint256"
        }
      ],
      "name": "getApproved",
      "outputs": [
        {
          "internalType": "address",
          "name": "",
          "type": "address"
        }
      ],
      "stateMutability": "view",
      "type": "function"
    },
    {
      "inputs": [
        {
          "internalType": "address",
          "name": "operator",
          "type": "address"
        },
        {
          "internalType": "bool",
          "name": "approved",
          "type": "bool"
        }
      ],
      "name": "setApprovalForAll",
      "outputs": [],
      "stateMutability": "nonpayable",
      "type": "function"
    },
    {
      "inputs": [
        {
          "internalType": "address",
          "name": "owner",
          "type": "address"
        },
        {
          "internalType": "address",
          "name": "operator",
          "type": "address"
        }
      ],
      "name": "isApprovedForAll",
      "outputs": [
        {
          "internalType": "bool",
          "name": "",
          "type": "bool"
        }
      ],
      "stateMutability": "view",
      "type": "function"
    },
    {
      "inputs": [
        {
          "internalType": "address",
          "name": "from",
          "type": "address"
        },
        {
          "internalType": "address",
          "name": "to",
          "type": "address"
        },
        {
          "internalType": "uint256",
          "name": "tokenId",
          "type": "uint256"
        }
      ],
      "name": "transferFrom",
      "outputs": [],
      "stateMutability": "nonpayable",
      "type": "function"
    },
    {
      "inputs": [
        {
          "internalType": "address",
          "name": "from",
          "type": "address"
        },
        {
          "internalType": "address",
          "name": "to",
          "type": "address"
        },
        {
          "internalType": "uint256",
          "name": "tokenId",
          "type": "uint256"
        }
      ],
      "name": "safeTransferFrom",
      "outputs": [],
      "stateMutability": "nonpayable",
      "type": "function"
    },
    {
      "inputs": [
        {
          "internalType": "address",
          "name": "from",
          "type": "address"
        },
        {
          "internalType": "address",
          "name": "to",
          "type": "address"
        },
        {
          "internalType": "uint256",
          "name": "tokenId",
          "type": "uint256"
        },
        {
          "internalType": "bytes",
          "name": "_data",
          "type": "bytes"
        }
      ],
      "name": "safeTransferFrom",
      "outputs": [],
      "stateMutability": "nonpayable",
      "type": "function"
    }
  ],
  "bytecode": "0x6080604052620493e06007556001600860006101000a81548160ff0219169083151502179055507d90e40fbeea1d3a4abc8955e946fe31cdcf66f634e1000000000000000000600f553480156200005557600080fd5b50620000766200006a6200019960201b60201c565b620001a160201b60201c565b6040518060400160405280601481526020017f426173696345766964656e63696e67546f6b656e00000000000000000000000081525060059080519060200190620000c392919062000265565b506040518060400160405280600381526020017f6270740000000000000000000000000000000000000000000000000000000000815250600690805190602001906200011192919062000265565b506001806000620001276200019960201b60201c565b73ffffffffffffffffffffffffffffffffffffffff1673ffffffffffffffffffffffffffffffffffffffff16815260200190815260200160002060006101000a81548160ff0219169083151502179055506001600860006101000a81548160ff0219169083151502179055506200037a565b600033905090565b60008060009054906101000a900473ffffffffffffffffffffffffffffffffffffffff169050816000806101000a81548173ffffffffffffffffffffffffffffffffffffffff021916908373ffffffffffffffffffffffffffffffffffffffff1602179055508173ffffffffffffffffffffffffffffffffffffffff168173ffffffffffffffffffffffffffffffffffffffff167f8be0079c531659141344cd1fd0a4f28419497f9722a3daafe3b4186f6b6457e060405160405180910390a35050565b828054620002739062000344565b90600052602060002090601f016020900481019282620002975760008555620002e3565b82601f10620002b257805160ff1916838001178555620002e3565b82800160010185558215620002e3579182015b82811115620002e2578251825591602001919060010190620002c5565b5b509050620002f29190620002f6565b5090565b5b8082111562000311576000816000905550600101620002f7565b5090565b7f4e487b7100000000000000000000000000000000000000000000000000000000600052602260045260246000fd5b600060028204905060018216806200035d57607f821691505b6020821081141562000374576200037362000315565b5b50919050565b6140aa806200038a6000396000f3fe6080604052600436106101b75760003560e01c80636dd81260116100ec578063a22cb4651161008a578063b88d4fde11610064578063b88d4fde146105e9578063c87b56dd14610612578063e985e9c51461064f578063f2fde38b1461068c576101b7565b8063a22cb46514610544578063a9efbf871461056d578063b0b5cf28146105ac576101b7565b806386cc657e116100c657806386cc657e146104ae5780638da5cb5b146104c55780639319c081146104f057806395d89b4114610519576101b7565b80636dd812601461043157806370a082311461045a578063715018a614610497576101b7565b806323b872dd1161015957806349dbfd091161013357806349dbfd091461036357806355ad6a981461038e57806355f804b3146103cb5780636352211e146103f4576101b7565b806323b872dd146102f5578063381702e81461031e57806342842e0e1461033a576101b7565b8063095ea7b311610195578063095ea7b3146102615780630c1ad0d91461028a57806311265091146102a157806318160ddd146102ca576101b7565b806301ffc9a7146101bc57806306fdde03146101f9578063081812fc14610224575b600080fd5b3480156101c857600080fd5b506101e360048036038101906101de91906127b3565b6106b5565b6040516101f091906127fb565b60405180910390f35b34801561020557600080fd5b5061020e610797565b60405161021b91906128af565b60405180910390f35b34801561023057600080fd5b5061024b60048036038101906102469190612907565b610829565b6040516102589190612975565b60405180910390f35b34801561026d57600080fd5b50610288600480360381019061028391906129bc565b6108b6565b005b34801561029657600080fd5b5061029f6109ce565b005b3480156102ad57600080fd5b506102c860048036038101906102c391906129fc565b610a67565b005b3480156102d657600080fd5b506102df610b7d565b6040516102ec9190612a38565b60405180910390f35b34801561030157600080fd5b5061031c60048036038101906103179190612a53565b610b8a565b005b61033860048036038101906103339190612907565b610bea565b005b34801561034657600080fd5b50610361600480360381019061035c9190612a53565b610da7565b005b34801561036f57600080fd5b50610378610dc7565b60405161038591906127fb565b60405180910390f35b34801561039a57600080fd5b506103b560048036038101906103b09190612907565b610dde565b6040516103c29190612a38565b60405180910390f35b3480156103d757600080fd5b506103f260048036038101906103ed9190612bdb565b610f00565b005b34801561040057600080fd5b5061041b60048036038101906104169190612907565b610f96565b6040516104289190612975565b60405180910390f35b34801561043d57600080fd5b5061045860048036038101906104539190612c24565b61105b565b005b34801561046657600080fd5b50610481600480360381019061047c91906129fc565b611231565b60405161048e9190612a38565b60405180910390f35b3480156104a357600080fd5b506104ac611351565b005b3480156104ba57600080fd5b506104c36113d9565b005b3480156104d157600080fd5b506104da611472565b6040516104e79190612975565b60405180910390f35b3480156104fc57600080fd5b50610517600480360381019061051291906129fc565b61149b565b005b34801561052557600080fd5b5061052e611628565b60405161053b91906128af565b60405180910390f35b34801561055057600080fd5b5061056b60048036038101906105669190612c90565b6116ba565b005b34801561057957600080fd5b50610594600480360381019061058f9190612907565b6116d0565b6040516105a393929190612cd0565b60405180910390f35b3480156105b857600080fd5b506105d360048036038101906105ce9190612907565b611761565b6040516105e09190612a38565b60405180910390f35b3480156105f557600080fd5b50610610600480360381019061060b9190612da8565b6117d4565b005b34801561061e57600080fd5b5061063960048036038101906106349190612907565b611836565b60405161064691906128af565b60405180910390f35b34801561065b57600080fd5b5061067660048036038101906106719190612e2b565b6118dd565b60405161068391906127fb565b60405180910390f35b34801561069857600080fd5b506106b360048036038101906106ae91906129fc565b611971565b005b60007f80ac58cd000000000000000000000000000000000000000000000000000000007bffffffffffffffffffffffffffffffffffffffffffffffffffffffff1916827bffffffffffffffffffffffffffffffffffffffffffffffffffffffff1916148061078057507f5b5e139f000000000000000000000000000000000000000000000000000000007bffffffffffffffffffffffffffffffffffffffffffffffffffffffff1916827bffffffffffffffffffffffffffffffffffffffffffffffffffffffff1916145b80610790575061078f82611a69565b5b9050919050565b6060600580546107a690612e9a565b80601f01602080910402602001604051908101604052809291908181526020018280546107d290612e9a565b801561081f5780601f106107f45761010080835404028352916020019161081f565b820191906000526020600020905b81548152906001019060200180831161080257829003601f168201915b5050505050905090565b600061083482611ad3565b610873576040517f08c379a000000000000000000000000000000000000000000000000000000000815260040161086a90612f3e565b60405180910390fd5b6002600061088084611aec565b815260200190815260200160002060009054906101000a900473ffffffffffffffffffffffffffffffffffffffff169050919050565b60006108c182610f96565b90508073ffffffffffffffffffffffffffffffffffffffff168373ffffffffffffffffffffffffffffffffffffffff161415610932576040517f08c379a000000000000000000000000000000000000000000000000000000000815260040161092990612fd0565b60405180910390fd5b8073ffffffffffffffffffffffffffffffffffffffff16610951611b1c565b73ffffffffffffffffffffffffffffffffffffffff161480610980575061097f8161097a611b1c565b6118dd565b5b6109bf576040517f08c379a00000000000000000000000000000000000000000000000000000000081526004016109b690613062565b60405180910390fd5b6109c98383611b24565b505050565b6109d6611b1c565b73ffffffffffffffffffffffffffffffffffffffff166109f4611472565b73ffffffffffffffffffffffffffffffffffffffff1614610a4a576040517f08c379a0000000000000000000000000000000000000000000000000000000008152600401610a41906130ce565b60405180910390fd5b6000600860006101000a81548160ff021916908315150217905550565b610a6f611b1c565b73ffffffffffffffffffffffffffffffffffffffff16610a8d611472565b73ffffffffffffffffffffffffffffffffffffffff1614610ae3576040517f08c379a0000000000000000000000000000000000000000000000000000000008152600401610ada906130ce565b60405180910390fd5b60018060008373ffffffffffffffffffffffffffffffffffffffff1673ffffffffffffffffffffffffffffffffffffffff16815260200190815260200160002060006101000a81548160ff0219169083151502179055507fdbc4069912b4b2b0db46f8d7127f85f2d678c511558044fc1bc9c591fb399b27610b63611b1c565b82604051610b729291906130ee565b60405180910390a150565b6000600d80549050905090565b610b9b610b95611b1c565b82611bdd565b610bda576040517f08c379a0000000000000000000000000000000000000000000000000000000008152600401610bd190613189565b60405180910390fd5b610be5838383611cbb565b505050565b600860009054906101000a900460ff16610c39576040517f08c379a0000000000000000000000000000000000000000000000000000000008152600401610c30906131f5565b60405180910390fd5b633b9aca00600754610c4b9190613244565b341015610c8d576040517f08c379a0000000000000000000000000000000000000000000000000000000008152600401610c8490613310565b60405180910390fd5b6000811415610cd1576040517f08c379a0000000000000000000000000000000000000000000000000000000008152600401610cc8906133a2565b60405180910390fd5b6000600960008381526020019081526020016000205414610d27576040517f08c379a0000000000000000000000000000000000000000000000000000000008152600401610d1e90613434565b60405180910390fd5b6000600f546002610d389190613244565b600d80549050610d489190613454565b905042600360008481526020019081526020016000208190555080600960008481526020019081526020016000208190555081600e600083815260200190815260200160002081905550610da3610d9d611b1c565b82611e74565b5050565b610dc2838383604051806020016040528060008152506117d4565b505050565b6000600860009054906101000a900460ff16905090565b600081610dea81611ad3565b610e29576040517f08c379a0000000000000000000000000000000000000000000000000000000008152600401610e209061351c565b60405180910390fd5b610e31611b1c565b73ffffffffffffffffffffffffffffffffffffffff16600d610e5283611aec565b81548110610e6357610e6261353c565b5b9060005260206000200160009054906101000a900473ffffffffffffffffffffffffffffffffffffffff1673ffffffffffffffffffffffffffffffffffffffff1614610ee4576040517f08c379a0000000000000000000000000000000000000000000000000000000008152600401610edb906135dd565b60405180910390fd5b600e600084815260200190815260200160002054915050919050565b610f08611b1c565b73ffffffffffffffffffffffffffffffffffffffff16610f26611472565b73ffffffffffffffffffffffffffffffffffffffff1614610f7c576040517f08c379a0000000000000000000000000000000000000000000000000000000008152600401610f73906130ce565b60405180910390fd5b8060109080519060200190610f929291906126a4565b5050565b600080600d610fa484611aec565b81548110610fb557610fb461353c565b5b9060005260206000200160009054906101000a900473ffffffffffffffffffffffffffffffffffffffff169050600073ffffffffffffffffffffffffffffffffffffffff168173ffffffffffffffffffffffffffffffffffffffff161415611052576040517f08c379a00000000000000000000000000000000000000000000000000000000081526004016110499061366f565b60405180910390fd5b80915050919050565b600115156001600061106b611b1c565b73ffffffffffffffffffffffffffffffffffffffff1673ffffffffffffffffffffffffffffffffffffffff16815260200190815260200160002060009054906101000a900460ff161515146110f5576040517f08c379a00000000000000000000000000000000000000000000000000000000081526004016110ec90613701565b60405180910390fd5b600060096000848152602001908152602001600020541461114b576040517f08c379a000000000000000000000000000000000000000000000000000000000815260040161114290613434565b60405180910390fd5b6000811415801561115d575060008214155b61119c576040517f08c379a0000000000000000000000000000000000000000000000000000000008152600401611193906133a2565b60405180910390fd5b8060096000848152602001908152602001600020819055506000600f5460016111c59190613244565b600d805490506111d59190613454565b90506111e86111e2611b1c565b82611e74565b7f42c6c30a3709f882a72860a6e96e910fd0c8cbd98691636c7ee1968bb6e7d319611211611b1c565b8484846040516112249493929190613721565b60405180910390a1505050565b60008073ffffffffffffffffffffffffffffffffffffffff168273ffffffffffffffffffffffffffffffffffffffff1614156112a2576040517f08c379a0000000000000000000000000000000000000000000000000000000008152600401611299906137d8565b60405180910390fd5b6000805b600d80549050811015611347578373ffffffffffffffffffffffffffffffffffffffff16600d82815481106112de576112dd61353c565b5b9060005260206000200160009054906101000a900473ffffffffffffffffffffffffffffffffffffffff1673ffffffffffffffffffffffffffffffffffffffff161415611334578180611330906137f8565b9250505b808061133f906137f8565b9150506112a6565b5080915050919050565b611359611b1c565b73ffffffffffffffffffffffffffffffffffffffff16611377611472565b73ffffffffffffffffffffffffffffffffffffffff16146113cd576040517f08c379a00000000000000000000000000000000000000000000000000000000081526004016113c4906130ce565b60405180910390fd5b6113d7600061205d565b565b6113e1611b1c565b73ffffffffffffffffffffffffffffffffffffffff166113ff611472565b73ffffffffffffffffffffffffffffffffffffffff1614611455576040517f08c379a000000000000000000000000000000000000000000000000000000000815260040161144c906130ce565b60405180910390fd5b6001600860006101000a81548160ff021916908315150217905550565b60008060009054906101000a900473ffffffffffffffffffffffffffffffffffffffff16905090565b6114a3611b1c565b73ffffffffffffffffffffffffffffffffffffffff166114c1611472565b73ffffffffffffffffffffffffffffffffffffffff1614611517576040517f08c379a000000000000000000000000000000000000000000000000000000000815260040161150e906130ce565b60405180910390fd5b61151f611472565b73ffffffffffffffffffffffffffffffffffffffff168173ffffffffffffffffffffffffffffffffffffffff16141561158d576040517f08c379a0000000000000000000000000000000000000000000000000000000008152600401611584906138b3565b60405180910390fd5b6000600160008373ffffffffffffffffffffffffffffffffffffffff1673ffffffffffffffffffffffffffffffffffffffff16815260200190815260200160002060006101000a81548160ff0219169083151502179055507f5e18e35dcf41e17a12fd1d07e9365a723006d47d320fdabded4b9d61aa79dec661160e611b1c565b8260405161161d9291906130ee565b60405180910390a150565b60606006805461163790612e9a565b80601f016020809104026020016040519081016040528092919081815260200182805461166390612e9a565b80156116b05780601f10611685576101008083540402835291602001916116b0565b820191906000526020600020905b81548152906001019060200180831161169357829003601f168201915b5050505050905090565b6116cc6116c5611b1c565b8383612121565b5050565b6000806000806009600086815260200190815260200160002054141561172b576040517f08c379a000000000000000000000000000000000000000000000000000000000815260040161172290613945565b60405180910390fd5b83600360008681526020019081526020016000205460096000878152602001908152602001600020549250925092509193909250565b600080600960008481526020019081526020016000205414156117b9576040517f08c379a00000000000000000000000000000000000000000000000000000000081526004016117b090613945565b60405180910390fd5b60096000838152602001908152602001600020549050919050565b6117e56117df611b1c565b83611bdd565b611824576040517f08c379a000000000000000000000000000000000000000000000000000000000815260040161181b90613189565b60405180910390fd5b6118308484848461228e565b50505050565b606061184182611ad3565b611880576040517f08c379a0000000000000000000000000000000000000000000000000000000008152600401611877906139d7565b60405180910390fd5b600061188a6122ea565b905060008151116118aa57604051806020016040528060008152506118d5565b806118b48461237c565b6040516020016118c5929190613a7f565b6040516020818303038152906040525b915050919050565b6000600460008473ffffffffffffffffffffffffffffffffffffffff1673ffffffffffffffffffffffffffffffffffffffff16815260200190815260200160002060008373ffffffffffffffffffffffffffffffffffffffff1673ffffffffffffffffffffffffffffffffffffffff16815260200190815260200160002060009054906101000a900460ff16905092915050565b611979611b1c565b73ffffffffffffffffffffffffffffffffffffffff16611997611472565b73ffffffffffffffffffffffffffffffffffffffff16146119ed576040517f08c379a00000000000000000000000000000000000000000000000000000000081526004016119e4906130ce565b60405180910390fd5b600073ffffffffffffffffffffffffffffffffffffffff168173ffffffffffffffffffffffffffffffffffffffff161415611a5d576040517f08c379a0000000000000000000000000000000000000000000000000000000008152600401611a5490613b20565b60405180910390fd5b611a668161205d565b50565b60007f01ffc9a7000000000000000000000000000000000000000000000000000000007bffffffffffffffffffffffffffffffffffffffffffffffffffffffff1916827bffffffffffffffffffffffffffffffffffffffffffffffffffffffff1916149050919050565b6000611ade82611aec565b600d80549050109050919050565b6000600f54611afa836124dd565b63ffffffff16611b0a9190613244565b82611b159190613b40565b9050919050565b600033905090565b816002600083815260200190815260200160002060006101000a81548173ffffffffffffffffffffffffffffffffffffffff021916908373ffffffffffffffffffffffffffffffffffffffff160217905550808273ffffffffffffffffffffffffffffffffffffffff16611b9783610f96565b73ffffffffffffffffffffffffffffffffffffffff167f8c5be1e5ebec7d5bd14f71427d1e84f3dd0314c0f7b2291e5b200ac8c7c3b92560405160405180910390a45050565b6000611be882611ad3565b611c27576040517f08c379a0000000000000000000000000000000000000000000000000000000008152600401611c1e90613be6565b60405180910390fd5b6000611c3283610f96565b90508073ffffffffffffffffffffffffffffffffffffffff168473ffffffffffffffffffffffffffffffffffffffff161480611ca157508373ffffffffffffffffffffffffffffffffffffffff16611c8984610829565b73ffffffffffffffffffffffffffffffffffffffff16145b80611cb25750611cb181856118dd565b5b91505092915050565b8273ffffffffffffffffffffffffffffffffffffffff16611cdb82610f96565b73ffffffffffffffffffffffffffffffffffffffff1614611d31576040517f08c379a0000000000000000000000000000000000000000000000000000000008152600401611d2890613c78565b60405180910390fd5b600073ffffffffffffffffffffffffffffffffffffffff168273ffffffffffffffffffffffffffffffffffffffff161415611da1576040517f08c379a0000000000000000000000000000000000000000000000000000000008152600401611d9890613d0a565b60405180910390fd5b611dac8383836124f4565b611db7600082611b24565b81600d8281548110611dcc57611dcb61353c565b5b9060005260206000200160006101000a81548173ffffffffffffffffffffffffffffffffffffffff021916908373ffffffffffffffffffffffffffffffffffffffff160217905550808273ffffffffffffffffffffffffffffffffffffffff168473ffffffffffffffffffffffffffffffffffffffff167fddf252ad1be2c89b69c2b068fc378daa952ba7f163c4a11628f55a4df523b3ef60405160405180910390a4505050565b600073ffffffffffffffffffffffffffffffffffffffff168273ffffffffffffffffffffffffffffffffffffffff161415611ee4576040517f08c379a0000000000000000000000000000000000000000000000000000000008152600401611edb90613d76565b60405180910390fd5b611eed81611ad3565b15611f2d576040517f08c379a0000000000000000000000000000000000000000000000000000000008152600401611f2490613de2565b60405180910390fd5b611f39600083836124f4565b6000600f5482611f499190613e31565b9050600d839080600181540180825580915050600190039060005260206000200160009091909190916101000a81548173ffffffffffffffffffffffffffffffffffffffff021916908373ffffffffffffffffffffffffffffffffffffffff160217905550600c8190806001815401808255809150506001900390600052602060002090600891828204019190066004029091909190916101000a81548163ffffffff021916908363ffffffff160217905550818373ffffffffffffffffffffffffffffffffffffffff16600073ffffffffffffffffffffffffffffffffffffffff167fddf252ad1be2c89b69c2b068fc378daa952ba7f163c4a11628f55a4df523b3ef60405160405180910390a4505050565b60008060009054906101000a900473ffffffffffffffffffffffffffffffffffffffff169050816000806101000a81548173ffffffffffffffffffffffffffffffffffffffff021916908373ffffffffffffffffffffffffffffffffffffffff1602179055508173ffffffffffffffffffffffffffffffffffffffff168173ffffffffffffffffffffffffffffffffffffffff167f8be0079c531659141344cd1fd0a4f28419497f9722a3daafe3b4186f6b6457e060405160405180910390a35050565b8173ffffffffffffffffffffffffffffffffffffffff168373ffffffffffffffffffffffffffffffffffffffff161415612190576040517f08c379a000000000000000000000000000000000000000000000000000000000815260040161218790613eae565b60405180910390fd5b80600460008573ffffffffffffffffffffffffffffffffffffffff1673ffffffffffffffffffffffffffffffffffffffff16815260200190815260200160002060008473ffffffffffffffffffffffffffffffffffffffff1673ffffffffffffffffffffffffffffffffffffffff16815260200190815260200160002060006101000a81548160ff0219169083151502179055508173ffffffffffffffffffffffffffffffffffffffff168373ffffffffffffffffffffffffffffffffffffffff167f17307eab39ab6107e8899845ad3d59bd9653f200f220920489ca2b5937696c318360405161228191906127fb565b60405180910390a3505050565b612299848484611cbb565b6122a5848484846124f9565b6122e4576040517f08c379a00000000000000000000000000000000000000000000000000000000081526004016122db90613f40565b60405180910390fd5b50505050565b6060601080546122f990612e9a565b80601f016020809104026020016040519081016040528092919081815260200182805461232590612e9a565b80156123725780601f1061234757610100808354040283529160200191612372565b820191906000526020600020905b81548152906001019060200180831161235557829003601f168201915b5050505050905090565b606060008214156123c4576040518060400160405280600181526020017f300000000000000000000000000000000000000000000000000000000000000081525090506124d8565b600082905060005b600082146123f65780806123df906137f8565b915050600a826123ef9190613e31565b91506123cc565b60008167ffffffffffffffff81111561241257612411612ab0565b5b6040519080825280601f01601f1916602001820160405280156124445781602001600182028036833780820191505090505b5090505b600085146124d15760018261245d9190613b40565b9150600a8561246c9190613f60565b60306124789190613454565b60f81b81838151811061248e5761248d61353c565b5b60200101907effffffffffffffffffffffffffffffffffffffffffffffffffffffffffffff1916908160001a905350600a856124ca9190613e31565b9450612448565b8093505050505b919050565b6000600f54826124ed9190613e31565b9050919050565b505050565b600061251a8473ffffffffffffffffffffffffffffffffffffffff16612681565b15612674578373ffffffffffffffffffffffffffffffffffffffff1663150b7a02612543611b1c565b8786866040518563ffffffff1660e01b81526004016125659493929190613fe6565b6020604051808303816000875af19250505080156125a157506040513d601f19601f8201168201806040525081019061259e9190614047565b60015b612624573d80600081146125d1576040519150601f19603f3d011682016040523d82523d6000602084013e6125d6565b606091505b5060008151141561261c576040517f08c379a000000000000000000000000000000000000000000000000000000000815260040161261390613f40565b60405180910390fd5b805181602001fd5b63150b7a0260e01b7bffffffffffffffffffffffffffffffffffffffffffffffffffffffff1916817bffffffffffffffffffffffffffffffffffffffffffffffffffffffff191614915050612679565b600190505b949350505050565b6000808273ffffffffffffffffffffffffffffffffffffffff163b119050919050565b8280546126b090612e9a565b90600052602060002090601f0160209004810192826126d25760008555612719565b82601f106126eb57805160ff1916838001178555612719565b82800160010185558215612719579182015b828111156127185782518255916020019190600101906126fd565b5b509050612726919061272a565b5090565b5b8082111561274357600081600090555060010161272b565b5090565b6000604051905090565b600080fd5b600080fd5b60007fffffffff0000000000000000000000000000000000000000000000000000000082169050919050565b6127908161275b565b811461279b57600080fd5b50565b6000813590506127ad81612787565b92915050565b6000602082840312156127c9576127c8612751565b5b60006127d78482850161279e565b91505092915050565b60008115159050919050565b6127f5816127e0565b82525050565b600060208201905061281060008301846127ec565b92915050565b600081519050919050565b600082825260208201905092915050565b60005b83811015612850578082015181840152602081019050612835565b8381111561285f576000848401525b50505050565b6000601f19601f8301169050919050565b600061288182612816565b61288b8185612821565b935061289b818560208601612832565b6128a481612865565b840191505092915050565b600060208201905081810360008301526128c98184612876565b905092915050565b6000819050919050565b6128e4816128d1565b81146128ef57600080fd5b50565b600081359050612901816128db565b92915050565b60006020828403121561291d5761291c612751565b5b600061292b848285016128f2565b91505092915050565b600073ffffffffffffffffffffffffffffffffffffffff82169050919050565b600061295f82612934565b9050919050565b61296f81612954565b82525050565b600060208201905061298a6000830184612966565b92915050565b61299981612954565b81146129a457600080fd5b50565b6000813590506129b681612990565b92915050565b600080604083850312156129d3576129d2612751565b5b60006129e1858286016129a7565b92505060206129f2858286016128f2565b9150509250929050565b600060208284031215612a1257612a11612751565b5b6000612a20848285016129a7565b91505092915050565b612a32816128d1565b82525050565b6000602082019050612a4d6000830184612a29565b92915050565b600080600060608486031215612a6c57612a6b612751565b5b6000612a7a868287016129a7565b9350506020612a8b868287016129a7565b9250506040612a9c868287016128f2565b9150509250925092565b600080fd5b600080fd5b7f4e487b7100000000000000000000000000000000000000000000000000000000600052604160045260246000fd5b612ae882612865565b810181811067ffffffffffffffff82111715612b0757612b06612ab0565b5b80604052505050565b6000612b1a612747565b9050612b268282612adf565b919050565b600067ffffffffffffffff821115612b4657612b45612ab0565b5b612b4f82612865565b9050602081019050919050565b82818337600083830152505050565b6000612b7e612b7984612b2b565b612b10565b905082815260208101848484011115612b9a57612b99612aab565b5b612ba5848285612b5c565b509392505050565b600082601f830112612bc257612bc1612aa6565b5b8135612bd2848260208601612b6b565b91505092915050565b600060208284031215612bf157612bf0612751565b5b600082013567ffffffffffffffff811115612c0f57612c0e612756565b5b612c1b84828501612bad565b91505092915050565b60008060408385031215612c3b57612c3a612751565b5b6000612c49858286016128f2565b9250506020612c5a858286016128f2565b9150509250929050565b612c6d816127e0565b8114612c7857600080fd5b50565b600081359050612c8a81612c64565b92915050565b60008060408385031215612ca757612ca6612751565b5b6000612cb5858286016129a7565b9250506020612cc685828601612c7b565b9150509250929050565b6000606082019050612ce56000830186612a29565b612cf26020830185612a29565b612cff6040830184612a29565b949350505050565b600067ffffffffffffffff821115612d2257612d21612ab0565b5b612d2b82612865565b9050602081019050919050565b6000612d4b612d4684612d07565b612b10565b905082815260208101848484011115612d6757612d66612aab565b5b612d72848285612b5c565b509392505050565b600082601f830112612d8f57612d8e612aa6565b5b8135612d9f848260208601612d38565b91505092915050565b60008060008060808587031215612dc257612dc1612751565b5b6000612dd0878288016129a7565b9450506020612de1878288016129a7565b9350506040612df2878288016128f2565b925050606085013567ffffffffffffffff811115612e1357612e12612756565b5b612e1f87828801612d7a565b91505092959194509250565b60008060408385031215612e4257612e41612751565b5b6000612e50858286016129a7565b9250506020612e61858286016129a7565b9150509250929050565b7f4e487b7100000000000000000000000000000000000000000000000000000000600052602260045260246000fd5b60006002820490506001821680612eb257607f821691505b60208210811415612ec657612ec5612e6b565b5b50919050565b7f4552433732313a20617070726f76656420717565727920666f72206e6f6e657860008201527f697374656e7420746f6b656e0000000000000000000000000000000000000000602082015250565b6000612f28602c83612821565b9150612f3382612ecc565b604082019050919050565b60006020820190508181036000830152612f5781612f1b565b9050919050565b7f4552433732313a20617070726f76616c20746f2063757272656e74206f776e6560008201527f7200000000000000000000000000000000000000000000000000000000000000602082015250565b6000612fba602183612821565b9150612fc582612f5e565b604082019050919050565b60006020820190508181036000830152612fe981612fad565b9050919050565b7f4552433732313a20617070726f76652063616c6c6572206973206e6f74206f7760008201527f6e6572206e6f7220617070726f76656420666f7220616c6c0000000000000000602082015250565b600061304c603883612821565b915061305782612ff0565b604082019050919050565b6000602082019050818103600083015261307b8161303f565b9050919050565b7f4f776e61626c653a2063616c6c6572206973206e6f7420746865206f776e6572600082015250565b60006130b8602083612821565b91506130c382613082565b602082019050919050565b600060208201905081810360008301526130e7816130ab565b9050919050565b60006040820190506131036000830185612966565b6131106020830184612966565b9392505050565b7f4552433732313a207472616e736665722063616c6c6572206973206e6f74206f60008201527f776e6572206e6f7220617070726f766564000000000000000000000000000000602082015250565b6000613173603183612821565b915061317e82613117565b604082019050919050565b600060208201905081810360008301526131a281613166565b9050919050565b7f53616c652069732063757272656e746c79206e6f742061637469766500000000600082015250565b60006131df601c83612821565b91506131ea826131a9565b602082019050919050565b6000602082019050818103600083015261320e816131d2565b9050919050565b7f4e487b7100000000000000000000000000000000000000000000000000000000600052601160045260246000fd5b600061324f826128d1565b915061325a836128d1565b9250817fffffffffffffffffffffffffffffffffffffffffffffffffffffffffffffffff048311821515161561329357613292613215565b5b828202905092915050565b7f416d6f756e74206f662065746865722073656e74206e6f7420636f727265637460008201527f2e00000000000000000000000000000000000000000000000000000000000000602082015250565b60006132fa602183612821565b91506133058261329e565b604082019050919050565b60006020820190508181036000830152613329816132ed565b9050919050565b7f596f752063616e6e6f742065766964656e6365204e554c4c202830292076616c60008201527f7565732100000000000000000000000000000000000000000000000000000000602082015250565b600061338c602483612821565b915061339782613330565b604082019050919050565b600060208201905081810360008301526133bb8161337f565b9050919050565b7f596f752063616e6e6f74206f7665727772697465206578697374696e6720657660008201527f6964656e63652100000000000000000000000000000000000000000000000000602082015250565b600061341e602783612821565b9150613429826133c2565b604082019050919050565b6000602082019050818103600083015261344d81613411565b9050919050565b600061345f826128d1565b915061346a836128d1565b9250827fffffffffffffffffffffffffffffffffffffffffffffffffffffffffffffffff0382111561349f5761349e613215565b5b828201905092915050565b7f5468652070726f766964656420746f6b656e20646f6573206e6f74206578697360008201527f7400000000000000000000000000000000000000000000000000000000000000602082015250565b6000613506602183612821565b9150613511826134aa565b604082019050919050565b60006020820190508181036000830152613535816134f9565b9050919050565b7f4e487b7100000000000000000000000000000000000000000000000000000000600052603260045260246000fd5b7f43616c6c6572206973206e6f74206f776e6572206f662074686520746f6b656e60008201527f2e00000000000000000000000000000000000000000000000000000000000000602082015250565b60006135c7602183612821565b91506135d28261356b565b604082019050919050565b600060208201905081810360008301526135f6816135ba565b9050919050565b7f4552433732313a206f776e657220717565727920666f72206e6f6e657869737460008201527f656e7420746f6b656e0000000000000000000000000000000000000000000000602082015250565b6000613659602983612821565b9150613664826135fd565b604082019050919050565b600060208201905081810360008301526136888161364c565b9050919050565b7f43616c6c65722068617320746f20626520616e2061737369676e65642f616c6c60008201527f6f77656420736572766963652e00000000000000000000000000000000000000602082015250565b60006136eb602d83612821565b91506136f68261368f565b604082019050919050565b6000602082019050818103600083015261371a816136de565b9050919050565b60006080820190506137366000830187612966565b6137436020830186612a29565b6137506040830185612a29565b61375d6060830184612a29565b95945050505050565b7f4552433732313a2062616c616e636520717565727920666f7220746865207a6560008201527f726f206164647265737300000000000000000000000000000000000000000000602082015250565b60006137c2602a83612821565b91506137cd82613766565b604082019050919050565b600060208201905081810360008301526137f1816137b5565b9050919050565b6000613803826128d1565b91507fffffffffffffffffffffffffffffffffffffffffffffffffffffffffffffffff82141561383657613835613215565b5b600182019050919050565b7f596f75206172652074686520636f6e7472616374206f776e65722c207768617460008201527f2061726520796f7520646f696e673f0000000000000000000000000000000000602082015250565b600061389d602f83612821565b91506138a882613841565b604082019050919050565b600060208201905081810360008301526138cc81613890565b9050919050565b7f5468652065766964656e636520796f75206172652072657175657374696e672060008201527f646f6573206e6f74206578697374210000000000000000000000000000000000602082015250565b600061392f602f83612821565b915061393a826138d3565b604082019050919050565b6000602082019050818103600083015261395e81613922565b9050919050565b7f4552433732314d657461646174613a2055524920717565727920666f72206e6f60008201527f6e6578697374656e7420746f6b656e0000000000000000000000000000000000602082015250565b60006139c1602f83612821565b91506139cc82613965565b604082019050919050565b600060208201905081810360008301526139f0816139b4565b9050919050565b600081905092915050565b6000613a0d82612816565b613a1781856139f7565b9350613a27818560208601612832565b80840191505092915050565b7f2e6a736f6e000000000000000000000000000000000000000000000000000000600082015250565b6000613a696005836139f7565b9150613a7482613a33565b600582019050919050565b6000613a8b8285613a02565b9150613a978284613a02565b9150613aa282613a5c565b91508190509392505050565b7f4f776e61626c653a206e6577206f776e657220697320746865207a65726f206160008201527f6464726573730000000000000000000000000000000000000000000000000000602082015250565b6000613b0a602683612821565b9150613b1582613aae565b604082019050919050565b60006020820190508181036000830152613b3981613afd565b9050919050565b6000613b4b826128d1565b9150613b56836128d1565b925082821015613b6957613b68613215565b5b828203905092915050565b7f4552433732313a206f70657261746f7220717565727920666f72206e6f6e657860008201527f697374656e7420746f6b656e0000000000000000000000000000000000000000602082015250565b6000613bd0602c83612821565b9150613bdb82613b74565b604082019050919050565b60006020820190508181036000830152613bff81613bc3565b9050919050565b7f4552433732313a207472616e73666572206f6620746f6b656e2074686174206960008201527f73206e6f74206f776e0000000000000000000000000000000000000000000000602082015250565b6000613c62602983612821565b9150613c6d82613c06565b604082019050919050565b60006020820190508181036000830152613c9181613c55565b9050919050565b7f4552433732313a207472616e7366657220746f20746865207a65726f2061646460008201527f7265737300000000000000000000000000000000000000000000000000000000602082015250565b6000613cf4602483612821565b9150613cff82613c98565b604082019050919050565b60006020820190508181036000830152613d2381613ce7565b9050919050565b7f4552433732313a206d696e7420746f20746865207a65726f2061646472657373600082015250565b6000613d60602083612821565b9150613d6b82613d2a565b602082019050919050565b60006020820190508181036000830152613d8f81613d53565b9050919050565b7f4552433732313a20746f6b656e20616c7265616479206d696e74656400000000600082015250565b6000613dcc601c83612821565b9150613dd782613d96565b602082019050919050565b60006020820190508181036000830152613dfb81613dbf565b9050919050565b7f4e487b7100000000000000000000000000000000000000000000000000000000600052601260045260246000fd5b6000613e3c826128d1565b9150613e47836128d1565b925082613e5757613e56613e02565b5b828204905092915050565b7f4552433732313a20617070726f766520746f2063616c6c657200000000000000600082015250565b6000613e98601983612821565b9150613ea382613e62565b602082019050919050565b60006020820190508181036000830152613ec781613e8b565b9050919050565b7f4552433732313a207472616e7366657220746f206e6f6e20455243373231526560008201527f63656976657220696d706c656d656e7465720000000000000000000000000000602082015250565b6000613f2a603283612821565b9150613f3582613ece565b604082019050919050565b60006020820190508181036000830152613f5981613f1d565b9050919050565b6000613f6b826128d1565b9150613f76836128d1565b925082613f8657613f85613e02565b5b828206905092915050565b600081519050919050565b600082825260208201905092915050565b6000613fb882613f91565b613fc28185613f9c565b9350613fd2818560208601612832565b613fdb81612865565b840191505092915050565b6000608082019050613ffb6000830187612966565b6140086020830186612966565b6140156040830185612a29565b81810360608301526140278184613fad565b905095945050505050565b60008151905061404181612787565b92915050565b60006020828403121561405d5761405c612751565b5b600061406b84828501614032565b9150509291505056fea26469706673582212201e2b9f848a71fc24f410ed013ed1dfd33255e3ac51cab7db43552d7c08a34d2964736f6c634300080b0033",
  "immutableReferences": {},
  "source": "//SPDX-License-Identifier: MIT\n\npragma solidity ^0.8.0;\nimport \"@openzeppelin/contracts/token/ERC721/IERC721.sol\";\nimport \"@openzeppelin/contracts/token/ERC721/IERC721Receiver.sol\";\nimport \"@openzeppelin/contracts/token/ERC721/extensions/IERC721Metadata.sol\";\nimport \"@openzeppelin/contracts/utils/Address.sol\";\nimport \"@openzeppelin/contracts/utils/Context.sol\";\nimport \"@openzeppelin/contracts/utils/Strings.sol\";\nimport \"@openzeppelin/contracts/utils/introspection/ERC165.sol\";\nimport \"@openzeppelin/contracts/access/Ownable.sol\";\n\n/**\n * @dev Implementation of https://eips.ethereum.org/EIPS/eip-721[ERC721] Non-Fungible Token Standard, including\n * the Metadata extension, but not including the Enumerable extension, which is available separately as\n * {ERC721Enumerable}.\n */\ncontract BasicEvidencingToken is\n    Context,\n    ERC165,\n    IERC721,\n    IERC721Metadata,\n    Ownable\n{\n    using Address for address;\n    using Strings for uint256;\n\n    constructor() {\n        \n        _name = \"BasicEvidencingToken\";\n        _symbol = \"bpt\";\n        _allowedServices[_msgSender()] = true;\n        _isSelfEvidencingActive = true;\n\n    }\n\n    //ERC721\n    mapping(address => bool) _allowedServices;\n\n    // Mapping from token ID to approved address\n    mapping(uint256 => address) private _tokenApprovals;\n\n    // Mapping tokenId to time\n    mapping(uint256 => uint256) private _mintTime;\n\n    // Mapping from owner to operator approvals\n    mapping(address => mapping(address => bool)) internal _operatorApprovals;\n\n    string private _name;\n\n    string private _symbol;\n    \n    uint256 private _mintSelfEvidencePriceGwei = 300000; //0.0003ETH\n\n    bool private _isSelfEvidencingActive = true;\n\n    //LCT\n    \n\n    //fileHash to txHash\n    mapping(uint256 => uint256) _hashMap;\n    mapping(uint256 => string) _evidenceMessage;\n    mapping(uint256 => uint32) _messageType;\n    uint32[] _types;\n    address[] internal _owners;\n    mapping(uint256 => uint256) _tokenIdEvidence;\n    uint internal _maxTokens = 1000000000000000000000000000000000000000000000000000000000000000000000000; \n    string _baseURL;\n\n    event MintedHashMapEvidence(address creator ,uint256 fromHash, uint256 toHash, uint256 tokenId);\n    event AssignedAllowedServiceEvent(address sender ,address addressToAllow);\n    event UnassignedAllowedServiceEvent(address sender ,address addressToUnassign);\n  \n    function setBaseURI(string memory uri) public onlyOwner {\n        _baseURL = uri;\n    }\n\n\n    function getIsSelfEvidencingActive() public view returns (bool){\n        return _isSelfEvidencingActive;\n    }\n\n    function setIsSelfEvidencingActive() public onlyOwner {\n        _isSelfEvidencingActive = true;\n    }\n\n    function setIsSelfEvidencingInactive() public onlyOwner {\n        _isSelfEvidencingActive = false;\n    }\n\n    function assignAllowedService(address addressToAllow) public onlyOwner\n    {\n        _allowedServices[addressToAllow] = true;\n        emit AssignedAllowedServiceEvent(_msgSender(), addressToAllow);\n    }\n\n    \n    function unassignAllowedService(address addressToUnassign) public onlyOwner\n    {\n        require(addressToUnassign != owner(),\"You are the contract owner, what are you doing?\");\n        _allowedServices[addressToUnassign] = false;\n        emit UnassignedAllowedServiceEvent(_msgSender(), addressToUnassign);\n    }\n\n    modifier isService()\n    {\n        require(_allowedServices[_msgSender()] == true,\"Caller has to be an assigned/allowed service.\");\n        _;\n    }\n\n\n    //fromHash = fileHash, toHash = txHash\n    function mintHashMapEvidence(uint256 fromHash, uint256 toHash) public isService()\n    {\n        require(_hashMap[fromHash] == 0, \"You cannot overwrite existing evidence!\");\n        require(toHash != 0 && fromHash != 0, \"You cannot evidence NULL (0) values!\");\n        _hashMap[fromHash] = toHash;\n       \n\n        // tokenID + type * _maxTokens\n        uint256 typedTokenId = (_owners.length ) + 1 * _maxTokens; \n\n        _mint(_msgSender(), typedTokenId);\n\n        emit MintedHashMapEvidence(_msgSender(), fromHash, toHash, typedTokenId);\n    }\n\n    function mintSelfEvidence(uint256 evidenceHash) public payable\n    {\n        require(_isSelfEvidencingActive, \"Sale is currently not active\");\n        require(\n            msg.value >= (_mintSelfEvidencePriceGwei * 1000000000),\n            \"Amount of ether sent not correct.\"\n        );\n        require(evidenceHash != 0, \"You cannot evidence NULL (0) values!\");\n        require(_hashMap[evidenceHash] == 0, \"You cannot overwrite existing evidence!\");\n        \n        // tokenID + type * _maxTokens\n        uint256 typedTokenId = (_owners.length ) + 2 * _maxTokens; \n        _mintTime[evidenceHash] = block.timestamp;\n        _hashMap[evidenceHash] = typedTokenId;\n        _tokenIdEvidence[typedTokenId]=evidenceHash;\n\n        _mint(_msgSender(), typedTokenId);\n    }\n\n    //  function mintBidirectionalHashMapProof(uint256 fromHash, uint256 toHash) public\n    // {\n    //     mintHashMapEvidence(fromHash, toHash);\n    //     mintHashMapEvidence(toHash, fromHash);\n    // }\n\n\n    //implied tbd by service/website\n    // function ProofHashMapFromToken(uint256 tokenId) public view\n    // {\n        \n    // }\n\n    modifier onlyTokenHolder(uint256 tokenId)\n    {\n        require(_exists(tokenId),'The provided token does not exist');\n\n        require(_owners[getTokenIdIndex(tokenId)] == _msgSender(),\"Caller is not owner of the token.\");\n        _;\n    }\n    \n    \n    function evidenceByTokenId(uint256 tokenId) public view onlyTokenHolder(tokenId) returns (uint256) \n    {\n        return _tokenIdEvidence[tokenId];\n    }\n\n\n    function verifyEvidenceHashMap(uint256 fromHash) public view returns (uint256)\n    {\n        require(_hashMap[fromHash] != 0, \"The evidence you are requesting does not exist!\");\n        return _hashMap[fromHash];\n    }\n\n    function verifySelfEvidence(uint256 evidenceHash) public view returns (uint256, uint256, uint256)\n    {\n        require(_hashMap[evidenceHash] != 0, \"The evidence you are requesting does not exist!\");\n        return (evidenceHash, _mintTime[evidenceHash], _hashMap[evidenceHash]);\n    }\n    //CALC\n\n    \n    function getTokenIdIndex(uint tokenId) internal view returns (uint256){\n        return tokenId - getTypeIdFromTokenId(tokenId) * _maxTokens;\n    }\n\n    \n    function getTypeIdFromTokenId(uint tokenId) internal view returns (uint32){\n        return  uint32(tokenId /_maxTokens);\n    }\n\n\n    //ERC721 #################################\n    \n\n    function totalSupply() public view returns (uint256) {\n        return _owners.length;\n    }\n\n    \n    /**\n     * @dev See {IERC165-supportsInterface}.\n     */\n    function supportsInterface(bytes4 interfaceId)\n        public\n        view\n        virtual\n        override(ERC165, IERC165)\n        returns (bool)\n    {\n        return\n            interfaceId == type(IERC721).interfaceId ||\n            interfaceId == type(IERC721Metadata).interfaceId ||\n            super.supportsInterface(interfaceId);\n    }\n\n    /**\n     * @dev See {IERC721-balanceOf}.\n     */\n    function balanceOf( address owner)\n        public\n        view\n        virtual\n        override\n        returns (uint256)\n    {\n        require(\n            owner != address(0),\n            \"ERC721: balance query for the zero address\"\n        );\n\n        uint256 amt = 0;\n        for (uint256 i = 0; i < _owners.length; i++) {\n            if (_owners[i] == owner) {\n                amt++;\n            }\n        }\n        return amt;\n    }\n\n    /**\n     * @dev See {IERC721-ownerOf}.\n     */\n    function ownerOf(uint256 tokenId)\n        public\n        view\n        virtual\n        override\n        returns (address)\n    {\n        address owner = _owners[getTokenIdIndex(tokenId)];\n        require(\n            owner != address(0),\n            \"ERC721: owner query for nonexistent token\"\n        );\n        return owner;\n    }\n\n    /**\n     * @dev See {IERC721Metadata-name}.\n     */\n    function name() public view virtual override returns (string memory) {\n        return _name;\n    }\n\n    /**\n     * @dev See {IERC721Metadata-symbol}.\n     */\n    function symbol() public view virtual override returns (string memory) {\n        return _symbol;\n    }\n\n    /**\n     * @dev See {IERC721Metadata-tokenURI}.\n     */\n    function tokenURI(uint256 tokenId)\n        public\n        view\n        virtual\n        override\n        returns (string memory)\n    {\n        require(\n            _exists(tokenId),\n            \"ERC721Metadata: URI query for nonexistent token\"\n        );\n\n        string memory baseURI = _baseURI();\n        return\n            bytes(baseURI).length > 0\n                ? string(abi.encodePacked(baseURI, tokenId.toString(),\".json\"))\n                : \"\";\n    }\n\n    /**\n     * @dev Base URI for computing {tokenURI}. If set, the resulting URI for each\n     * token will be the concatenation of the `baseURI` and the `tokenId`. Empty\n     * by default, can be overriden in child contracts.\n     */\n    function _baseURI() internal view virtual returns (string memory) {\n        return _baseURL;\n    }\n\n    \n\n    /**\n     * @dev See {IERC721-approve}.\n     */\n    function approve(address to, uint256 tokenId) public virtual override {\n        address owner = BasicEvidencingToken.ownerOf(tokenId);\n        require(to != owner, \"ERC721: approval to current owner\");\n\n        require(\n            _msgSender() == owner || isApprovedForAll(owner, _msgSender()),\n            \"ERC721: approve caller is not owner nor approved for all\"\n        );\n\n        _approve(to, tokenId);\n    }\n\n    /**\n     * @dev See {IERC721-getApproved}.\n     */\n    function getApproved(uint256 tokenId)\n        public\n        view\n        virtual\n        override\n        returns (address)\n    {\n        require(\n            _exists(tokenId),\n            \"ERC721: approved query for nonexistent token\"\n        );\n\n        return _tokenApprovals[getTokenIdIndex(tokenId)];\n    }\n\n    /**\n     * @dev See {IERC721-setApprovalForAll}.\n     */\n    function setApprovalForAll(address operator, bool approved)\n        public\n        virtual\n        override\n    {\n        _setApprovalForAll(_msgSender(), operator, approved);\n    }\n\n    /**\n     * @dev See {IERC721-isApprovedForAll}.\n     */\n    function isApprovedForAll(address owner, address operator)\n        public\n        view\n        virtual\n        override\n        returns (bool)\n    {\n        return _operatorApprovals[owner][operator];\n    }\n\n    /**\n     * @dev See {IERC721-transferFrom}.\n     */\n    function transferFrom(\n        address from,\n        address to,\n        uint256 tokenId\n    ) public virtual override {\n        //solhint-disable-next-line max-line-length\n        require(\n            _isApprovedOrOwner(_msgSender(), tokenId),\n            \"ERC721: transfer caller is not owner nor approved\"\n        );\n\n        _transfer(from, to, tokenId);\n    }\n\n    /**\n     * @dev See {IERC721-safeTransferFrom}.\n     */\n    function safeTransferFrom(\n        address from,\n        address to,\n        uint256 tokenId\n    ) public virtual override {\n        safeTransferFrom(from, to, tokenId, \"\");\n    }\n\n    /**\n     * @dev See {IERC721-safeTransferFrom}.\n     */\n    function safeTransferFrom(\n        address from,\n        address to,\n        uint256 tokenId,\n        bytes memory _data\n    ) public virtual override {\n        require(\n            _isApprovedOrOwner(_msgSender(), tokenId),\n            \"ERC721: transfer caller is not owner nor approved\"\n        );\n        _safeTransfer(from, to, tokenId, _data);\n    }\n\n    /**\n     * @dev Safely transfers `tokenId` token from `from` to `to`, checking first that contract recipients\n     * are aware of the ERC721 protocol to prevent tokens from being forever locked.\n     *\n     * `_data` is additional data, it has no specified format and it is sent in call to `to`.\n     *\n     * This internal function is equivalent to {safeTransferFrom}, and can be used to e.g.\n     * implement alternative mechanisms to perform token transfer, such as signature-based.\n     *\n     * Requirements:\n     *\n     * - `from` cannot be the zero address.\n     * - `to` cannot be the zero address.\n     * - `tokenId` token must exist and be owned by `from`.\n     * - If `to` refers to a smart contract, it must implement {IERC721Receiver-onERC721Received}, which is called upon a safe transfer.\n     *\n     * Emits a {Transfer} event.\n     */\n    function _safeTransfer(\n        address from,\n        address to,\n        uint256 tokenId,\n        bytes memory _data\n    ) internal virtual {\n        _transfer(from, to, tokenId);\n        require(\n            _checkOnERC721Received(from, to, tokenId, _data),\n            \"ERC721: transfer to non ERC721Receiver implementer\"\n        );\n    }\n\n    /**\n     * @dev Returns whether `tokenId` exists.\n     *\n     * Tokens can be managed by their owner or approved accounts via {approve} or {setApprovalForAll}.\n     *\n     * Tokens start existing when they are minted (`_mint`),\n     * and stop existing when they are burned (`_burn`).\n     */\n    function _exists(uint256 tokenId) internal view virtual returns (bool) {\n        return _owners.length < getTokenIdIndex( tokenId); //owner length is the amt of existing tokens, including burned tokens\n    }\n\n    /**\n     * @dev Returns whether `spender` is allowed to manage `tokenId`.\n     *\n     * Requirements:\n     *\n     * - `tokenId` must exist.\n     */\n    function _isApprovedOrOwner(address spender, uint256 tokenId)\n        internal\n        view\n        virtual\n        returns (bool)\n    {\n        require(\n            _exists(tokenId),\n            \"ERC721: operator query for nonexistent token\"\n        );\n        address owner = BasicEvidencingToken.ownerOf(tokenId);\n        return (spender == owner ||\n            getApproved(tokenId) == spender ||\n            isApprovedForAll(owner, spender));\n    }\n\n    /**\n     * @dev Safely mints `tokenId` and transfers it to `to`.\n     *\n     * Requirements:\n     *\n     * - `tokenId` must not exist.\n     * - If `to` refers to a smart contract, it must implement {IERC721Receiver-onERC721Received}, which is called upon a safe transfer.\n     *\n     * Emits a {Transfer} event.\n     */\n    function _safeMint(address to, uint256 tokenId) internal virtual {\n        _safeMint(to, tokenId, \"\");\n    }\n\n    /**\n     * @dev Same as {xref-ERC721-_safeMint-address-uint256-}[`_safeMint`], with an additional `data` parameter which is\n     * forwarded in {IERC721Receiver-onERC721Received} to contract recipients.\n     */\n    function _safeMint(\n        address to,\n        uint256 tokenId,\n        bytes memory _data\n    ) internal virtual {\n        _mint(to, tokenId);\n        require(\n            _checkOnERC721Received(address(0), to, tokenId, _data),\n            \"ERC721: transfer to non ERC721Receiver implementer\"\n        );\n    }\n\n    \n\n    /**\n     * @dev Mints `tokenId` and transfers it to `to`.\n     *\n     * WARNING: Usage of this method is discouraged, use {_safeMint} whenever possible\n     *\n     * Requirements:\n     *\n     * - `tokenId` must not exist.\n     * - `to` cannot be the zero address.\n     *\n     * Emits a {Transfer} event.\n     */\n    function _mint(address to, uint256 tokenId) internal virtual {\n        require(to != address(0), \"ERC721: mint to the zero address\");\n        require(!_exists(tokenId), \"ERC721: token already minted\");\n\n        _beforeTokenTransfer(address(0), to, tokenId);\n        uint32 ttype = uint32(tokenId / _maxTokens);\n        _owners.push(to);\n        _types.push(ttype);\n\n        emit Transfer(address(0), to, tokenId);\n    }\n\n\n    /**\n     * @dev Destroys `tokenId`.\n     * The approval is cleared when the token is burned.\n     *\n     * Requirements:\n     *\n     * - `tokenId` must exist.\n     *\n     * Emits a {Transfer} event.\n     */\n    function _burn(uint256 tokenId) internal virtual {\n        address owner = BasicEvidencingToken.ownerOf(tokenId);\n\n        _beforeTokenTransfer(owner, address(0), tokenId);\n\n        // Clear approvals\n        _approve(address(0), tokenId);\n\n        _owners[tokenId] = address(0);\n\n        emit Transfer(owner, address(0), tokenId);\n    }\n\n    /**\n     * @dev Transfers `tokenId` from `from` to `to`.\n     *  As opposed to {transferFrom}, this imposes no restrictions on msg.sender.\n     *\n     * Requirements:\n     *\n     * - `to` cannot be the zero address.\n     * - `tokenId` token must be owned by `from`.\n     *\n     * Emits a {Transfer} event.\n     */\n    function _transfer(\n        address from,\n        address to,\n        uint256 tokenId\n    ) internal virtual {\n        require(\n            BasicEvidencingToken.ownerOf(tokenId) == from,\n            \"ERC721: transfer of token that is not own\"\n        );\n        require(to != address(0), \"ERC721: transfer to the zero address\");\n\n        _beforeTokenTransfer(from, to, tokenId);\n\n        // Clear approvals from the previous owner\n        _approve(address(0), tokenId);\n\n        _owners[tokenId] = to;\n\n        emit Transfer(from, to, tokenId);\n    }\n\n    /**\n     * @dev Approve `to` to operate on `tokenId`\n     *\n     * Emits a {Approval} event.\n     */\n    function _approve(address to, uint256 tokenId) internal virtual {\n        _tokenApprovals[tokenId] = to;\n        emit Approval(BasicEvidencingToken.ownerOf(tokenId), to, tokenId);\n    }\n\n    /**\n     * @dev Approve `operator` to operate on all of `owner` tokens\n     *\n     * Emits a {ApprovalForAll} event.\n     */\n    function _setApprovalForAll(\n        address owner,\n        address operator,\n        bool approved\n    ) internal virtual {\n        require(owner != operator, \"ERC721: approve to caller\");\n        _operatorApprovals[owner][operator] = approved;\n        emit ApprovalForAll(owner, operator, approved);\n    }\n\n    /**\n     * @dev Internal function to invoke {IERC721Receiver-onERC721Received} on a target address.\n     * The call is not executed if the target address is not a contract.\n     *\n     * @param from address representing the previous owner of the given token ID\n     * @param to target address that will receive the tokens\n     * @param tokenId uint256 ID of the token to be transferred\n     * @param _data bytes optional data to send along with the call\n     * @return bool whether the call correctly returned the expected magic value\n     */\n    function _checkOnERC721Received(\n        address from,\n        address to,\n        uint256 tokenId,\n        bytes memory _data\n    ) private returns (bool) {\n        if (to.isContract()) {\n            try\n                IERC721Receiver(to).onERC721Received(\n                    _msgSender(),\n                    from,\n                    tokenId,\n                    _data\n                )\n            returns (bytes4 retval) {\n                return retval == IERC721Receiver.onERC721Received.selector;\n            } catch (bytes memory reason) {\n                if (reason.length == 0) {\n                    revert(\n                        \"ERC721: transfer to non ERC721Receiver implementer\"\n                    );\n                } else {\n                    assembly {\n                        revert(add(32, reason), mload(reason))\n                    }\n                }\n            }\n        } else {\n            return true;\n        }\n    }\n\n    /**\n     * @dev Hook that is called before any token transfer. This includes minting\n     * and burning.\n     *\n     * Calling conditions:\n     *\n     * - When `from` and `to` are both non-zero, ``from``'s `tokenId` will be\n     * transferred to `to`.\n     * - When `from` is zero, `tokenId` will be minted for `to`.\n     * - When `to` is zero, ``from``'s `tokenId` will be burned.\n     * - `from` and `to` are never both zero.\n     *\n     * To learn more about hooks, head to xref:ROOT:extending-contracts.adoc#using-hooks[Using Hooks].\n     */\n    function _beforeTokenTransfer(\n        address from,\n        address to,\n        uint256 tokenId\n    ) internal virtual {}\n\n}\n",
  "sourcePath": "/app/contracts/GeoFingerToken.sol",
  "compiler": {
    "name": "solc",
    "version": "0.8.11+commit.d7f03943.Emscripten.clang"
  },
  "schemaVersion": "3.4.4",
  "updatedAt": "2022-06-10T13:54:59.237Z",
  "devdoc": {
    "details": "Implementation of https://eips.ethereum.org/EIPS/eip-721[ERC721] Non-Fungible Token Standard, including the Metadata extension, but not including the Enumerable extension, which is available separately as {ERC721Enumerable}.",
    "kind": "dev",
    "methods": {
      "approve(address,uint256)": {
        "details": "See {IERC721-approve}."
      },
      "balanceOf(address)": {
        "details": "See {IERC721-balanceOf}."
      },
      "getApproved(uint256)": {
        "details": "See {IERC721-getApproved}."
      },
      "isApprovedForAll(address,address)": {
        "details": "See {IERC721-isApprovedForAll}."
      },
      "name()": {
        "details": "See {IERC721Metadata-name}."
      },
      "owner()": {
        "details": "Returns the address of the current owner."
      },
      "ownerOf(uint256)": {
        "details": "See {IERC721-ownerOf}."
      },
      "renounceOwnership()": {
        "details": "Leaves the contract without owner. It will not be possible to call `onlyOwner` functions anymore. Can only be called by the current owner. NOTE: Renouncing ownership will leave the contract without an owner, thereby removing any functionality that is only available to the owner."
      },
      "safeTransferFrom(address,address,uint256)": {
        "details": "See {IERC721-safeTransferFrom}."
      },
      "safeTransferFrom(address,address,uint256,bytes)": {
        "details": "See {IERC721-safeTransferFrom}."
      },
      "setApprovalForAll(address,bool)": {
        "details": "See {IERC721-setApprovalForAll}."
      },
      "supportsInterface(bytes4)": {
        "details": "See {IERC165-supportsInterface}."
      },
      "symbol()": {
        "details": "See {IERC721Metadata-symbol}."
      },
      "tokenURI(uint256)": {
        "details": "See {IERC721Metadata-tokenURI}."
      },
      "transferFrom(address,address,uint256)": {
        "details": "See {IERC721-transferFrom}."
      },
      "transferOwnership(address)": {
        "details": "Transfers ownership of the contract to a new account (`newOwner`). Can only be called by the current owner."
      }
    },
    "version": 1
  },
  "userdoc": {
    "kind": "user",
    "methods": {},
    "version": 1
  }
}