{
  "contractName": "GeoFingerToken",
  "abi": [
    {
      "inputs": [],
      "stateMutability": "nonpayable",
      "type": "constructor"
    },
    {
      "anonymous": false,
      "inputs": [
        {
          "indexed": true,
          "internalType": "address",
          "name": "owner",
          "type": "address"
        },
        {
          "indexed": true,
          "internalType": "address",
          "name": "approved",
          "type": "address"
        },
        {
          "indexed": true,
          "internalType": "uint256",
          "name": "tokenId",
          "type": "uint256"
        }
      ],
      "name": "Approval",
      "type": "event"
    },
    {
      "anonymous": false,
      "inputs": [
        {
          "indexed": true,
          "internalType": "address",
          "name": "owner",
          "type": "address"
        },
        {
          "indexed": true,
          "internalType": "address",
          "name": "operator",
          "type": "address"
        },
        {
          "indexed": false,
          "internalType": "bool",
          "name": "approved",
          "type": "bool"
        }
      ],
      "name": "ApprovalForAll",
      "type": "event"
    },
    {
      "anonymous": false,
      "inputs": [
        {
          "indexed": false,
          "internalType": "address",
          "name": "sender",
          "type": "address"
        },
        {
          "indexed": false,
          "internalType": "address",
          "name": "addressToAllow",
          "type": "address"
        }
      ],
      "name": "AssignedAllowedServiceEvent",
      "type": "event"
    },
    {
      "anonymous": false,
      "inputs": [
        {
          "indexed": false,
          "internalType": "address",
          "name": "creator",
          "type": "address"
        },
        {
          "indexed": false,
          "internalType": "uint256",
          "name": "fromHash",
          "type": "uint256"
        },
        {
          "indexed": false,
          "internalType": "uint256",
          "name": "toHash",
          "type": "uint256"
        },
        {
          "indexed": false,
          "internalType": "uint256",
          "name": "tokenId",
          "type": "uint256"
        }
      ],
      "name": "MintedHashMapEvidence",
      "type": "event"
    },
    {
      "anonymous": false,
      "inputs": [
        {
          "indexed": false,
          "internalType": "address",
          "name": "sender",
          "type": "address"
        },
        {
          "indexed": false,
          "internalType": "uint64",
          "name": "spotId",
          "type": "uint64"
        },
        {
          "indexed": false,
          "internalType": "uint256",
          "name": "messageTokenId",
          "type": "uint256"
        }
      ],
      "name": "MintedMessage",
      "type": "event"
    },
    {
      "anonymous": false,
      "inputs": [
        {
          "indexed": true,
          "internalType": "address",
          "name": "previousOwner",
          "type": "address"
        },
        {
          "indexed": true,
          "internalType": "address",
          "name": "newOwner",
          "type": "address"
        }
      ],
      "name": "OwnershipTransferred",
      "type": "event"
    },
    {
      "anonymous": false,
      "inputs": [
        {
          "indexed": false,
          "internalType": "address",
          "name": "sender",
          "type": "address"
        },
        {
          "indexed": false,
          "internalType": "uint256",
          "name": "tokenId",
          "type": "uint256"
        },
        {
          "indexed": false,
          "internalType": "uint64",
          "name": "spotId",
          "type": "uint64"
        }
      ],
      "name": "SpotClaimed",
      "type": "event"
    },
    {
      "anonymous": false,
      "inputs": [
        {
          "indexed": true,
          "internalType": "address",
          "name": "from",
          "type": "address"
        },
        {
          "indexed": true,
          "internalType": "address",
          "name": "to",
          "type": "address"
        },
        {
          "indexed": true,
          "internalType": "uint256",
          "name": "tokenId",
          "type": "uint256"
        }
      ],
      "name": "Transfer",
      "type": "event"
    },
    {
      "anonymous": false,
      "inputs": [
        {
          "indexed": false,
          "internalType": "address",
          "name": "sender",
          "type": "address"
        },
        {
          "indexed": false,
          "internalType": "address",
          "name": "addressToUnassign",
          "type": "address"
        }
      ],
      "name": "UnassignedAllowedServiceEvent",
      "type": "event"
    },
    {
      "inputs": [],
      "name": "owner",
      "outputs": [
        {
          "internalType": "address",
          "name": "",
          "type": "address"
        }
      ],
      "stateMutability": "view",
      "type": "function"
    },
    {
      "inputs": [],
      "name": "renounceOwnership",
      "outputs": [],
      "stateMutability": "nonpayable",
      "type": "function"
    },
    {
      "inputs": [
        {
          "internalType": "address",
          "name": "newOwner",
          "type": "address"
        }
      ],
      "name": "transferOwnership",
      "outputs": [],
      "stateMutability": "nonpayable",
      "type": "function"
    },
    {
      "inputs": [
        {
          "internalType": "string",
          "name": "uri",
          "type": "string"
        }
      ],
      "name": "setBaseURI",
      "outputs": [],
      "stateMutability": "nonpayable",
      "type": "function"
    },
    {
      "inputs": [],
      "name": "getIsMintingActive",
      "outputs": [
        {
          "internalType": "bool",
          "name": "",
          "type": "bool"
        }
      ],
      "stateMutability": "view",
      "type": "function"
    },
    {
      "inputs": [],
      "name": "setIsMintingActive",
      "outputs": [],
      "stateMutability": "nonpayable",
      "type": "function"
    },
    {
      "inputs": [],
      "name": "setIsMintingInactive",
      "outputs": [],
      "stateMutability": "nonpayable",
      "type": "function"
    },
    {
      "inputs": [
        {
          "internalType": "string",
          "name": "uniCodeMessage",
          "type": "string"
        },
        {
          "internalType": "uint32",
          "name": "longitude",
          "type": "uint32"
        },
        {
          "internalType": "uint32",
          "name": "latitude",
          "type": "uint32"
        },
        {
          "internalType": "bool",
          "name": "autoConvertFame",
          "type": "bool"
        }
      ],
      "name": "mintMessage",
      "outputs": [],
      "stateMutability": "nonpayable",
      "type": "function"
    },
    {
      "inputs": [
        {
          "internalType": "uint32",
          "name": "longitude",
          "type": "uint32"
        },
        {
          "internalType": "uint32",
          "name": "latitude",
          "type": "uint32"
        }
      ],
      "name": "getTeasedMessagesForSpot",
      "outputs": [
        {
          "components": [
            {
              "internalType": "string",
              "name": "message",
              "type": "string"
            },
            {
              "internalType": "uint128",
              "name": "tokenId",
              "type": "uint128"
            }
          ],
          "internalType": "struct GeoFingerToken.MessageContainer[]",
          "name": "",
          "type": "tuple[]"
        }
      ],
      "stateMutability": "view",
      "type": "function"
    },
    {
      "inputs": [
        {
          "internalType": "uint128",
          "name": "messageTokenId",
          "type": "uint128"
        }
      ],
      "name": "unlockMessage",
      "outputs": [],
      "stateMutability": "nonpayable",
      "type": "function"
    },
    {
      "inputs": [
        {
          "internalType": "uint128",
          "name": "messageTokenId",
          "type": "uint128"
        }
      ],
      "name": "getUnlockedMessage",
      "outputs": [
        {
          "internalType": "string",
          "name": "",
          "type": "string"
        }
      ],
      "stateMutability": "view",
      "type": "function"
    },
    {
      "inputs": [
        {
          "internalType": "uint128",
          "name": "messageTokenId",
          "type": "uint128"
        }
      ],
      "name": "upvoteMessage",
      "outputs": [],
      "stateMutability": "nonpayable",
      "type": "function"
    },
    {
      "inputs": [
        {
          "internalType": "uint32",
          "name": "longitude",
          "type": "uint32"
        },
        {
          "internalType": "uint32",
          "name": "latitude",
          "type": "uint32"
        }
      ],
      "name": "convertFameToMessageCoin",
      "outputs": [],
      "stateMutability": "nonpayable",
      "type": "function"
    },
    {
      "inputs": [
        {
          "internalType": "uint32",
          "name": "longitude",
          "type": "uint32"
        },
        {
          "internalType": "uint32",
          "name": "latitude",
          "type": "uint32"
        }
      ],
      "name": "getMessageCoinBalanceForSpot",
      "outputs": [
        {
          "internalType": "uint16",
          "name": "",
          "type": "uint16"
        }
      ],
      "stateMutability": "view",
      "type": "function"
    },
    {
      "inputs": [],
      "name": "getFameCoinBalance",
      "outputs": [
        {
          "internalType": "uint16",
          "name": "",
          "type": "uint16"
        }
      ],
      "stateMutability": "view",
      "type": "function"
    },
    {
      "inputs": [
        {
          "internalType": "string",
          "name": "str",
          "type": "string"
        },
        {
          "internalType": "uint256",
          "name": "startIndex",
          "type": "uint256"
        },
        {
          "internalType": "uint256",
          "name": "endIndex",
          "type": "uint256"
        }
      ],
      "name": "_substring",
      "outputs": [
        {
          "internalType": "string",
          "name": "",
          "type": "string"
        }
      ],
      "stateMutability": "pure",
      "type": "function"
    },
    {
      "inputs": [],
      "name": "totalSupply",
      "outputs": [
        {
          "internalType": "uint256",
          "name": "",
          "type": "uint256"
        }
      ],
      "stateMutability": "view",
      "type": "function"
    },
    {
      "inputs": [
        {
          "internalType": "bytes4",
          "name": "interfaceId",
          "type": "bytes4"
        }
      ],
      "name": "supportsInterface",
      "outputs": [
        {
          "internalType": "bool",
          "name": "",
          "type": "bool"
        }
      ],
      "stateMutability": "view",
      "type": "function"
    },
    {
      "inputs": [
        {
          "internalType": "address",
          "name": "owner",
          "type": "address"
        }
      ],
      "name": "balanceOf",
      "outputs": [
        {
          "internalType": "uint256",
          "name": "",
          "type": "uint256"
        }
      ],
      "stateMutability": "view",
      "type": "function"
    },
    {
      "inputs": [
        {
          "internalType": "uint256",
          "name": "tokenId",
          "type": "uint256"
        }
      ],
      "name": "ownerOf",
      "outputs": [
        {
          "internalType": "address",
          "name": "",
          "type": "address"
        }
      ],
      "stateMutability": "view",
      "type": "function"
    },
    {
      "inputs": [],
      "name": "name",
      "outputs": [
        {
          "internalType": "string",
          "name": "",
          "type": "string"
        }
      ],
      "stateMutability": "view",
      "type": "function"
    },
    {
      "inputs": [],
      "name": "symbol",
      "outputs": [
        {
          "internalType": "string",
          "name": "",
          "type": "string"
        }
      ],
      "stateMutability": "view",
      "type": "function"
    },
    {
      "inputs": [
        {
          "internalType": "uint256",
          "name": "tokenId",
          "type": "uint256"
        }
      ],
      "name": "tokenURI",
      "outputs": [
        {
          "internalType": "string",
          "name": "",
          "type": "string"
        }
      ],
      "stateMutability": "view",
      "type": "function"
    },
    {
      "inputs": [
        {
          "internalType": "address",
          "name": "to",
          "type": "address"
        },
        {
          "internalType": "uint256",
          "name": "tokenId",
          "type": "uint256"
        }
      ],
      "name": "approve",
      "outputs": [],
      "stateMutability": "nonpayable",
      "type": "function"
    },
    {
      "inputs": [
        {
          "internalType": "uint256",
          "name": "tokenId",
          "type": "uint256"
        }
      ],
      "name": "getApproved",
      "outputs": [
        {
          "internalType": "address",
          "name": "",
          "type": "address"
        }
      ],
      "stateMutability": "view",
      "type": "function"
    },
    {
      "inputs": [
        {
          "internalType": "address",
          "name": "operator",
          "type": "address"
        },
        {
          "internalType": "bool",
          "name": "approved",
          "type": "bool"
        }
      ],
      "name": "setApprovalForAll",
      "outputs": [],
      "stateMutability": "nonpayable",
      "type": "function"
    },
    {
      "inputs": [
        {
          "internalType": "address",
          "name": "owner",
          "type": "address"
        },
        {
          "internalType": "address",
          "name": "operator",
          "type": "address"
        }
      ],
      "name": "isApprovedForAll",
      "outputs": [
        {
          "internalType": "bool",
          "name": "",
          "type": "bool"
        }
      ],
      "stateMutability": "view",
      "type": "function"
    },
    {
      "inputs": [
        {
          "internalType": "address",
          "name": "from",
          "type": "address"
        },
        {
          "internalType": "address",
          "name": "to",
          "type": "address"
        },
        {
          "internalType": "uint256",
          "name": "tokenId",
          "type": "uint256"
        }
      ],
      "name": "transferFrom",
      "outputs": [],
      "stateMutability": "nonpayable",
      "type": "function"
    },
    {
      "inputs": [
        {
          "internalType": "address",
          "name": "from",
          "type": "address"
        },
        {
          "internalType": "address",
          "name": "to",
          "type": "address"
        },
        {
          "internalType": "uint256",
          "name": "tokenId",
          "type": "uint256"
        }
      ],
      "name": "safeTransferFrom",
      "outputs": [],
      "stateMutability": "nonpayable",
      "type": "function"
    },
    {
      "inputs": [
        {
          "internalType": "address",
          "name": "from",
          "type": "address"
        },
        {
          "internalType": "address",
          "name": "to",
          "type": "address"
        },
        {
          "internalType": "uint256",
          "name": "tokenId",
          "type": "uint256"
        },
        {
          "internalType": "bytes",
          "name": "_data",
          "type": "bytes"
        }
      ],
      "name": "safeTransferFrom",
      "outputs": [],
      "stateMutability": "nonpayable",
      "type": "function"
    }
  ],
  "bytecode": "0x60806040526001600a60006101000a81548160ff02191690831515021790555062989680600d60006101000a81548163ffffffff021916908363ffffffff1602179055503480156200005057600080fd5b5062000071620000656200012e60201b60201c565b6200013660201b60201c565b6040518060400160405280600e81526020017f47656f46696e676572546f6b656e00000000000000000000000000000000000081525060089080519060200190620000be929190620001fa565b506040518060400160405280600381526020017f6766740000000000000000000000000000000000000000000000000000000000815250600990805190602001906200010c929190620001fa565b506001600a60006101000a81548160ff0219169083151502179055506200030f565b600033905090565b60008060009054906101000a900473ffffffffffffffffffffffffffffffffffffffff169050816000806101000a81548173ffffffffffffffffffffffffffffffffffffffff021916908373ffffffffffffffffffffffffffffffffffffffff1602179055508173ffffffffffffffffffffffffffffffffffffffff168173ffffffffffffffffffffffffffffffffffffffff167f8be0079c531659141344cd1fd0a4f28419497f9722a3daafe3b4186f6b6457e060405160405180910390a35050565b8280546200020890620002aa565b90600052602060002090601f0160209004810192826200022c576000855562000278565b82601f106200024757805160ff191683800117855562000278565b8280016001018555821562000278579182015b82811115620002775782518255916020019190600101906200025a565b5b5090506200028791906200028b565b5090565b5b80821115620002a65760008160009055506001016200028c565b5090565b60006002820490506001821680620002c357607f821691505b60208210811415620002da57620002d9620002e0565b5b50919050565b7f4e487b7100000000000000000000000000000000000000000000000000000000600052602260045260246000fd5b615099806200031f6000396000f3fe608060405234801561001057600080fd5b50600436106101da5760003560e01c8063715018a611610104578063a7fc666f116100a2578063e985e9c511610071578063e985e9c51461052d578063ebb4a6a81461055d578063f00ed96514610579578063f2fde38b146105a9576101da565b8063a7fc666f146104a7578063b88d4fde146104d7578063c87b56dd146104f3578063e05324cf14610523576101da565b80638da5cb5b116100de5780638da5cb5b146104455780638dbbac691461046357806395d89b411461046d578063a22cb4651461048b576101da565b8063715018a6146103ff5780637fd9088b14610409578063870609c214610427576101da565b806323b872dd1161017c5780636352211e1161014b5780636352211e1461035357806367bee822146103835780636be351e0146103b357806370a08231146103cf576101da565b806323b872dd146102e357806326de755a146102ff57806342842e0e1461031b57806355f804b314610337576101da565b8063095ea7b3116101b8578063095ea7b31461025d57806318160ddd146102795780631d34b8aa1461029757806322fb2993146102c7576101da565b806301ffc9a7146101df57806306fdde031461020f578063081812fc1461022d575b600080fd5b6101f960048036038101906101f491906138b2565b6105c5565b60405161020691906140a2565b60405180910390f35b6102176106a7565b60405161022491906140bd565b60405180910390f35b61024760048036038101906102429190613a50565b610739565b6040516102549190613fab565b60405180910390f35b61027760048036038101906102729190613876565b6107be565b005b6102816108d6565b60405161028e919061435a565b60405180910390f35b6102b160048036038101906102ac9190613a79565b6108e3565b6040516102be919061433f565b60405180910390f35b6102e160048036038101906102dc91906139ac565b610904565b005b6102fd60048036038101906102f89190613770565b610abb565b005b61031960048036038101906103149190613a27565b610b1b565b005b61033560048036038101906103309190613770565b610e20565b005b610351600480360381019061034c9190613904565b610e40565b005b61036d60048036038101906103689190613a50565b610ed6565b60405161037a9190613fab565b60405180910390f35b61039d60048036038101906103989190613a79565b610fb9565b6040516103aa9190614080565b60405180910390f35b6103cd60048036038101906103c89190613a79565b6112cc565b005b6103e960048036038101906103e4919061370b565b6112e8565b6040516103f6919061435a565b60405180910390f35b61040761142e565b005b6104116114b6565b60405161041e91906140a2565b60405180910390f35b61042f6114cd565b60405161043c919061433f565b60405180910390f35b61044d611529565b60405161045a9190613fab565b60405180910390f35b61046b611552565b005b6104756115eb565b60405161048291906140bd565b60405180910390f35b6104a560048036038101906104a0919061383a565b61167d565b005b6104c160048036038101906104bc9190613a27565b611693565b6040516104ce91906140bd565b60405180910390f35b6104f160048036038101906104ec91906137bf565b611873565b005b61050d60048036038101906105089190613a50565b6118d5565b60405161051a91906140bd565b60405180910390f35b61052b61197c565b005b61054760048036038101906105429190613734565b611a15565b60405161055491906140a2565b60405180910390f35b61057760048036038101906105729190613a27565b611aa9565b005b610593600480360381019061058e9190613945565b611d61565b6040516105a091906140bd565b60405180910390f35b6105c360048036038101906105be919061370b565b611ecf565b005b60007f80ac58cd000000000000000000000000000000000000000000000000000000007bffffffffffffffffffffffffffffffffffffffffffffffffffffffff1916827bffffffffffffffffffffffffffffffffffffffffffffffffffffffff1916148061069057507f5b5e139f000000000000000000000000000000000000000000000000000000007bffffffffffffffffffffffffffffffffffffffffffffffffffffffff1916827bffffffffffffffffffffffffffffffffffffffffffffffffffffffff1916145b806106a0575061069f82611fc7565b5b9050919050565b6060600880546106b6906148b5565b80601f01602080910402602001604051908101604052809291908181526020018280546106e2906148b5565b801561072f5780601f106107045761010080835404028352916020019161072f565b820191906000526020600020905b81548152906001019060200180831161071257829003601f168201915b5050505050905090565b600061074482612031565b610783576040517f08c379a000000000000000000000000000000000000000000000000000000000815260040161077a9061427f565b60405180910390fd5b6005600083815260200190815260200160002060009054906101000a900473ffffffffffffffffffffffffffffffffffffffff169050919050565b60006107c982610ed6565b90508073ffffffffffffffffffffffffffffffffffffffff168373ffffffffffffffffffffffffffffffffffffffff16141561083a576040517f08c379a0000000000000000000000000000000000000000000000000000000008152600401610831906142ff565b60405180910390fd5b8073ffffffffffffffffffffffffffffffffffffffff16610859612042565b73ffffffffffffffffffffffffffffffffffffffff161480610888575061088781610882612042565b611a15565b5b6108c7576040517f08c379a00000000000000000000000000000000000000000000000000000000081526004016108be906141ff565b60405180910390fd5b6108d1838361204a565b505050565b6000600e80549050905090565b6000806108f08484612103565b90506108fb81612219565b91505092915050565b600a60009054906101000a900460ff16610953576040517f08c379a000000000000000000000000000000000000000000000000000000000815260040161094a906140df565b60405180910390fd5b600084511161096157600080fd5b600061096d8484612103565b90506109788161229c565b610aa9576000600e805490509050610997610991612042565b826122d0565b6000600360008467ffffffffffffffff1667ffffffffffffffff16815260200190815260200160002060006109ca612042565b73ffffffffffffffffffffffffffffffffffffffff1673ffffffffffffffffffffffffffffffffffffffff16815260200190815260200160002060006101000a81548161ffff021916908361ffff160217905550610a2782612458565b610a39610a32612042565b6014612566565b80600160008467ffffffffffffffff1667ffffffffffffffff168152602001908152602001600020819055507fd742822a86f6e5824529589da0104fe48ce992efd8a5274b30889cd29931a458610a8e612042565b8284604051610a9f93929190614012565b60405180910390a1505b610ab481868461261c565b5050505050565b610acc610ac6612042565b826128fe565b610b0b576040517f08c379a0000000000000000000000000000000000000000000000000000000008152600401610b029061431f565b60405180910390fd5b610b168383836129dc565b505050565b6000610b2682612bbb565b9050600060046000610b36612042565b73ffffffffffffffffffffffffffffffffffffffff1673ffffffffffffffffffffffffffffffffffffffff16815260200190815260200160002060009054906101000a900461ffff1661ffff1611610b8d57600080fd5b610b9682612be8565b63ffffffff16600b60008367ffffffffffffffff1667ffffffffffffffff1681526020019081526020016000208054905011610bd157600080fd5b60046000610bdd612042565b73ffffffffffffffffffffffffffffffffffffffff1673ffffffffffffffffffffffffffffffffffffffff168152602001908152602001600020600081819054906101000a900461ffff1680929190610c359061488b565b91906101000a81548161ffff021916908361ffff16021790555050600c6000836fffffffffffffffffffffffffffffffff166fffffffffffffffffffffffffffffffff168152602001908152602001600020600081819054906101000a900463ffffffff1680929190610ca79061498c565b91906101000a81548163ffffffff021916908363ffffffff16021790555050610d8660026000846fffffffffffffffffffffffffffffffff166fffffffffffffffffffffffffffffffff16815260200190815260200160002060009054906101000a900473ffffffffffffffffffffffffffffffffffffffff166001600a600c6000876fffffffffffffffffffffffffffffffff166fffffffffffffffffffffffffffffffff16815260200190815260200160002060009054906101000a900463ffffffff16610d7791906145b7565b610d819190614489565b612566565b610e1c600e600160008467ffffffffffffffff1667ffffffffffffffff1681526020019081526020016000205481548110610dea577f4e487b7100000000000000000000000000000000000000000000000000000000600052603260045260246000fd5b9060005260206000200160009054906101000a900473ffffffffffffffffffffffffffffffffffffffff166001612566565b5050565b610e3b83838360405180602001604052806000815250611873565b505050565b610e48612042565b73ffffffffffffffffffffffffffffffffffffffff16610e66611529565b73ffffffffffffffffffffffffffffffffffffffff1614610ebc576040517f08c379a0000000000000000000000000000000000000000000000000000000008152600401610eb39061429f565b60405180910390fd5b80600f9080519060200190610ed29291906134d9565b5050565b600080600e8381548110610f13577f4e487b7100000000000000000000000000000000000000000000000000000000600052603260045260246000fd5b9060005260206000200160009054906101000a900473ffffffffffffffffffffffffffffffffffffffff169050600073ffffffffffffffffffffffffffffffffffffffff168173ffffffffffffffffffffffffffffffffffffffff161415610fb0576040517f08c379a0000000000000000000000000000000000000000000000000000000008152600401610fa79061423f565b60405180910390fd5b80915050919050565b60606000610fc78484612103565b90506000600b60008367ffffffffffffffff1667ffffffffffffffff168152602001908152602001600020805480602002602001604051908101604052809291908181526020016000905b828210156110be578382906000526020600020018054611031906148b5565b80601f016020809104026020016040519081016040528092919081815260200182805461105d906148b5565b80156110aa5780601f1061107f576101008083540402835291602001916110aa565b820191906000526020600020905b81548152906001019060200180831161108d57829003601f168201915b505050505081526020019060010190611012565b5050505090506000815167ffffffffffffffff811115611107577f4e487b7100000000000000000000000000000000000000000000000000000000600052604160045260246000fd5b60405190808252806020026020018201604052801561114057816020015b61112d61355f565b8152602001906001900390816111255790505b50905060005b82518110156112bf576040518060400160405280611203858481518110611196577f4e487b7100000000000000000000000000000000000000000000000000000000600052603260045260246000fd5b602002602001015160006003600a8988815181106111dd577f4e487b7100000000000000000000000000000000000000000000000000000000600052603260045260246000fd5b6020026020010151516111f09190614586565b6111fa9190614489565b61ffff16611d61565b8152602001600d60009054906101000a900463ffffffff1663ffffffff168667ffffffffffffffff166112369190614619565b6fffffffffffffffffffffffffffffffff168361125391906144c1565b6fffffffffffffffffffffffffffffffff168152508282815181106112a1577f4e487b7100000000000000000000000000000000000000000000000000000000600052603260045260246000fd5b602002602001018190525080806112b790614943565b915050611146565b5080935050505092915050565b60006112d88383612103565b90506112e381612c43565b505050565b60008073ffffffffffffffffffffffffffffffffffffffff168273ffffffffffffffffffffffffffffffffffffffff161415611359576040517f08c379a00000000000000000000000000000000000000000000000000000000081526004016113509061421f565b60405180910390fd5b6000805b600e80549050811015611424578373ffffffffffffffffffffffffffffffffffffffff16600e82815481106113bb577f4e487b7100000000000000000000000000000000000000000000000000000000600052603260045260246000fd5b9060005260206000200160009054906101000a900473ffffffffffffffffffffffffffffffffffffffff1673ffffffffffffffffffffffffffffffffffffffff16141561141157818061140d90614943565b9250505b808061141c90614943565b91505061135d565b5080915050919050565b611436612042565b73ffffffffffffffffffffffffffffffffffffffff16611454611529565b73ffffffffffffffffffffffffffffffffffffffff16146114aa576040517f08c379a00000000000000000000000000000000000000000000000000000000081526004016114a19061429f565b60405180910390fd5b6114b46000612e4e565b565b6000600a60009054906101000a900460ff16905090565b6000600460006114db612042565b73ffffffffffffffffffffffffffffffffffffffff1673ffffffffffffffffffffffffffffffffffffffff16815260200190815260200160002060009054906101000a900461ffff16905090565b60008060009054906101000a900473ffffffffffffffffffffffffffffffffffffffff16905090565b61155a612042565b73ffffffffffffffffffffffffffffffffffffffff16611578611529565b73ffffffffffffffffffffffffffffffffffffffff16146115ce576040517f08c379a00000000000000000000000000000000000000000000000000000000081526004016115c59061429f565b60405180910390fd5b6001600a60006101000a81548160ff021916908315150217905550565b6060600980546115fa906148b5565b80601f0160208091040260200160405190810160405280929190818152602001828054611626906148b5565b80156116735780601f1061164857610100808354040283529160200191611673565b820191906000526020600020905b81548152906001019060200180831161165657829003601f168201915b5050505050905090565b61168f611688612042565b8383612f12565b5050565b606060011515600660006116a5612042565b73ffffffffffffffffffffffffffffffffffffffff1673ffffffffffffffffffffffffffffffffffffffff1681526020019081526020016000206000846fffffffffffffffffffffffffffffffff166fffffffffffffffffffffffffffffffff16815260200190815260200160002060009054906101000a900460ff16151514611764576040517f08c379a000000000000000000000000000000000000000000000000000000000815260040161175b906141bf565b60405180910390fd5b600b600061177184612bbb565b67ffffffffffffffff1667ffffffffffffffff16815260200190815260200160002061179c83612be8565b63ffffffff16815481106117d9577f4e487b7100000000000000000000000000000000000000000000000000000000600052603260045260246000fd5b9060005260206000200180546117ee906148b5565b80601f016020809104026020016040519081016040528092919081815260200182805461181a906148b5565b80156118675780601f1061183c57610100808354040283529160200191611867565b820191906000526020600020905b81548152906001019060200180831161184a57829003601f168201915b50505050509050919050565b61188461187e612042565b836128fe565b6118c3576040517f08c379a00000000000000000000000000000000000000000000000000000000081526004016118ba9061431f565b60405180910390fd5b6118cf8484848461307f565b50505050565b60606118e082612031565b61191f576040517f08c379a0000000000000000000000000000000000000000000000000000000008152600401611916906142df565b60405180910390fd5b60006119296130db565b905060008151116119495760405180602001604052806000815250611974565b806119538461316d565b604051602001611964929190613f7c565b6040516020818303038152906040525b915050919050565b611984612042565b73ffffffffffffffffffffffffffffffffffffffff166119a2611529565b73ffffffffffffffffffffffffffffffffffffffff16146119f8576040517f08c379a00000000000000000000000000000000000000000000000000000000081526004016119ef9061429f565b60405180910390fd5b6000600a60006101000a81548160ff021916908315150217905550565b6000600760008473ffffffffffffffffffffffffffffffffffffffff1673ffffffffffffffffffffffffffffffffffffffff16815260200190815260200160002060008373ffffffffffffffffffffffffffffffffffffffff1673ffffffffffffffffffffffffffffffffffffffff16815260200190815260200160002060009054906101000a900460ff16905092915050565b6000611ab482612bbb565b9050600060046000611ac4612042565b73ffffffffffffffffffffffffffffffffffffffff1673ffffffffffffffffffffffffffffffffffffffff16815260200190815260200160002060009054906101000a900461ffff1661ffff1611611b1b57600080fd5b6000600b60008367ffffffffffffffff1667ffffffffffffffff1681526020019081526020016000208054905011611b5257600080fd5b60046000611b5e612042565b73ffffffffffffffffffffffffffffffffffffffff1673ffffffffffffffffffffffffffffffffffffffff168152602001908152602001600020600081819054906101000a900461ffff1680929190611bb69061488b565b91906101000a81548161ffff021916908361ffff16021790555050611c3360026000846fffffffffffffffffffffffffffffffff166fffffffffffffffffffffffffffffffff16815260200190815260200160002060009054906101000a900473ffffffffffffffffffffffffffffffffffffffff166002612566565b611cc9600e600160008467ffffffffffffffff1667ffffffffffffffff1681526020019081526020016000205481548110611c97577f4e487b7100000000000000000000000000000000000000000000000000000000600052603260045260246000fd5b9060005260206000200160009054906101000a900473ffffffffffffffffffffffffffffffffffffffff166001612566565b600160066000611cd7612042565b73ffffffffffffffffffffffffffffffffffffffff1673ffffffffffffffffffffffffffffffffffffffff1681526020019081526020016000206000846fffffffffffffffffffffffffffffffff166fffffffffffffffffffffffffffffffff16815260200190815260200160002060006101000a81548160ff0219169083151502179055505050565b6060600084905060008484611d76919061470d565b67ffffffffffffffff811115611db5577f4e487b7100000000000000000000000000000000000000000000000000000000600052604160045260246000fd5b6040519080825280601f01601f191660200182016040528015611de75781602001600182028036833780820191505090505b50905060008590505b84811015611ec257828181518110611e31577f4e487b7100000000000000000000000000000000000000000000000000000000600052603260045260246000fd5b602001015160f81c60f81b828783611e49919061470d565b81518110611e80577f4e487b7100000000000000000000000000000000000000000000000000000000600052603260045260246000fd5b60200101907effffffffffffffffffffffffffffffffffffffffffffffffffffffffffffff1916908160001a9053508080611eba90614943565b915050611df0565b5080925050509392505050565b611ed7612042565b73ffffffffffffffffffffffffffffffffffffffff16611ef5611529565b73ffffffffffffffffffffffffffffffffffffffff1614611f4b576040517f08c379a0000000000000000000000000000000000000000000000000000000008152600401611f429061429f565b60405180910390fd5b600073ffffffffffffffffffffffffffffffffffffffff168173ffffffffffffffffffffffffffffffffffffffff161415611fbb576040517f08c379a0000000000000000000000000000000000000000000000000000000008152600401611fb29061411f565b60405180910390fd5b611fc481612e4e565b50565b60007f01ffc9a7000000000000000000000000000000000000000000000000000000007bffffffffffffffffffffffffffffffffffffffffffffffffffffffff1916827bffffffffffffffffffffffffffffffffffffffffffffffffffffffff1916149050919050565b600081600e80549050109050919050565b600033905090565b816005600083815260200190815260200160002060006101000a81548173ffffffffffffffffffffffffffffffffffffffff021916908373ffffffffffffffffffffffffffffffffffffffff160217905550808273ffffffffffffffffffffffffffffffffffffffff166120bd83610ed6565b73ffffffffffffffffffffffffffffffffffffffff167f8c5be1e5ebec7d5bd14f71427d1e84f3dd0314c0f7b2291e5b200ac8c7c3b92560405160405180910390a45050565b600080620f42408461211591906145b7565b63ffffffff16905060006064620f4240836121309190614663565b8663ffffffff166121419190614741565b61214b91906145e8565b9050600060648261215c9190614663565b620f42408461216b9190614663565b6121759190614517565b90506000620f42408661218891906145b7565b63ffffffff16905060006064620f4240836121a39190614663565b8863ffffffff166121b49190614741565b6121be91906145e8565b905060006064826121cf9190614663565b620f4240846121de9190614663565b6121e89190614517565b9050600081633b9aca00866121fd9190614663565b6122079190614517565b90508097505050505050505092915050565b6000600360008367ffffffffffffffff1667ffffffffffffffff168152602001908152602001600020600061224c612042565b73ffffffffffffffffffffffffffffffffffffffff1673ffffffffffffffffffffffffffffffffffffffff16815260200190815260200160002060009054906101000a900461ffff169050919050565b600080600160008467ffffffffffffffff1667ffffffffffffffff1681526020019081526020016000205414159050919050565b600073ffffffffffffffffffffffffffffffffffffffff168273ffffffffffffffffffffffffffffffffffffffff161415612340576040517f08c379a00000000000000000000000000000000000000000000000000000000081526004016123379061425f565b60405180910390fd5b61234981612031565b15612389576040517f08c379a00000000000000000000000000000000000000000000000000000000081526004016123809061413f565b60405180910390fd5b6123956000838361331a565b600e829080600181540180825580915050600190039060005260206000200160009091909190916101000a81548173ffffffffffffffffffffffffffffffffffffffff021916908373ffffffffffffffffffffffffffffffffffffffff160217905550808273ffffffffffffffffffffffffffffffffffffffff16600073ffffffffffffffffffffffffffffffffffffffff167fddf252ad1be2c89b69c2b068fc378daa952ba7f163c4a11628f55a4df523b3ef60405160405180910390a45050565b6001600360008367ffffffffffffffff1667ffffffffffffffff168152602001908152602001600020600061248b612042565b73ffffffffffffffffffffffffffffffffffffffff1673ffffffffffffffffffffffffffffffffffffffff16815260200190815260200160002060009054906101000a900461ffff166124de9190614489565b600360008367ffffffffffffffff1667ffffffffffffffff168152602001908152602001600020600061250f612042565b73ffffffffffffffffffffffffffffffffffffffff1673ffffffffffffffffffffffffffffffffffffffff16815260200190815260200160002060006101000a81548161ffff021916908361ffff16021790555050565b80600460008473ffffffffffffffffffffffffffffffffffffffff1673ffffffffffffffffffffffffffffffffffffffff16815260200190815260200160002060009054906101000a900461ffff166125bf9190614489565b600460008473ffffffffffffffffffffffffffffffffffffffff1673ffffffffffffffffffffffffffffffffffffffff16815260200190815260200160002060006101000a81548161ffff021916908361ffff1602179055505050565b6001151581151514801561263c5750600061263684612219565b61ffff16145b1561264b5761264a83612c43565b5b600061265684612219565b61ffff161161266457600080fd5b6000600d60009054906101000a900463ffffffff1663ffffffff168467ffffffffffffffff166126949190614619565b6fffffffffffffffffffffffffffffffff16600b60008667ffffffffffffffff1667ffffffffffffffff168152602001908152602001600020805490506126db91906144c1565b9050600b60008567ffffffffffffffff1667ffffffffffffffff1681526020019081526020016000208390806001815401808255809150506001900390600052602060002001600090919091909150908051906020019061273d9291906134d9565b506000600c6000836fffffffffffffffffffffffffffffffff166fffffffffffffffffffffffffffffffff16815260200190815260200160002060006101000a81548163ffffffff021916908363ffffffff160217905550600360008567ffffffffffffffff1667ffffffffffffffff16815260200190815260200160002060006127c6612042565b73ffffffffffffffffffffffffffffffffffffffff1673ffffffffffffffffffffffffffffffffffffffff168152602001908152602001600020600081819054906101000a900461ffff168092919061281e9061488b565b91906101000a81548161ffff021916908361ffff16021790555050612841612042565b60026000836fffffffffffffffffffffffffffffffff166fffffffffffffffffffffffffffffffff16815260200190815260200160002060006101000a81548173ffffffffffffffffffffffffffffffffffffffff021916908373ffffffffffffffffffffffffffffffffffffffff1602179055507fc76aebc2483dae4242fa905e79fc56adc6cf299da97c53fb42af2dfef4b572b66128df612042565b85836040516128f093929190614049565b60405180910390a150505050565b600061290982612031565b612948576040517f08c379a000000000000000000000000000000000000000000000000000000000815260040161293f906141df565b60405180910390fd5b600061295383610ed6565b90508073ffffffffffffffffffffffffffffffffffffffff168473ffffffffffffffffffffffffffffffffffffffff1614806129c257508373ffffffffffffffffffffffffffffffffffffffff166129aa84610739565b73ffffffffffffffffffffffffffffffffffffffff16145b806129d357506129d28185611a15565b5b91505092915050565b8273ffffffffffffffffffffffffffffffffffffffff166129fc82610ed6565b73ffffffffffffffffffffffffffffffffffffffff1614612a52576040517f08c379a0000000000000000000000000000000000000000000000000000000008152600401612a49906142bf565b60405180910390fd5b600073ffffffffffffffffffffffffffffffffffffffff168273ffffffffffffffffffffffffffffffffffffffff161415612ac2576040517f08c379a0000000000000000000000000000000000000000000000000000000008152600401612ab99061415f565b60405180910390fd5b612acd83838361331a565b612ad860008261204a565b81600e8281548110612b13577f4e487b7100000000000000000000000000000000000000000000000000000000600052603260045260246000fd5b9060005260206000200160006101000a81548173ffffffffffffffffffffffffffffffffffffffff021916908373ffffffffffffffffffffffffffffffffffffffff160217905550808273ffffffffffffffffffffffffffffffffffffffff168473ffffffffffffffffffffffffffffffffffffffff167fddf252ad1be2c89b69c2b068fc378daa952ba7f163c4a11628f55a4df523b3ef60405160405180910390a4505050565b6000600d60009054906101000a900463ffffffff1663ffffffff1682612be19190614555565b9050919050565b6000600d60009054906101000a900463ffffffff1663ffffffff16600d60009054906101000a900463ffffffff1663ffffffff1683612c279190614555565b612c319190614619565b82612c3c91906146a5565b9050919050565b6000600a600b60008467ffffffffffffffff1667ffffffffffffffff16815260200190815260200160002080549050612c7c9190614586565b6014612c889190614489565b90508061ffff1660046000612c9b612042565b73ffffffffffffffffffffffffffffffffffffffff1673ffffffffffffffffffffffffffffffffffffffff16815260200190815260200160002060009054906101000a900461ffff1661ffff161015612d29576040517f08c379a0000000000000000000000000000000000000000000000000000000008152600401612d209061419f565b60405180910390fd5b8060046000612d36612042565b73ffffffffffffffffffffffffffffffffffffffff1673ffffffffffffffffffffffffffffffffffffffff16815260200190815260200160002060008282829054906101000a900461ffff16612d8c91906146d9565b92506101000a81548161ffff021916908361ffff160217905550600360008367ffffffffffffffff1667ffffffffffffffff1681526020019081526020016000206000612dd7612042565b73ffffffffffffffffffffffffffffffffffffffff1673ffffffffffffffffffffffffffffffffffffffff168152602001908152602001600020600081819054906101000a900461ffff1680929190612e2f90614918565b91906101000a81548161ffff021916908361ffff160217905550505050565b60008060009054906101000a900473ffffffffffffffffffffffffffffffffffffffff169050816000806101000a81548173ffffffffffffffffffffffffffffffffffffffff021916908373ffffffffffffffffffffffffffffffffffffffff1602179055508173ffffffffffffffffffffffffffffffffffffffff168173ffffffffffffffffffffffffffffffffffffffff167f8be0079c531659141344cd1fd0a4f28419497f9722a3daafe3b4186f6b6457e060405160405180910390a35050565b8173ffffffffffffffffffffffffffffffffffffffff168373ffffffffffffffffffffffffffffffffffffffff161415612f81576040517f08c379a0000000000000000000000000000000000000000000000000000000008152600401612f789061417f565b60405180910390fd5b80600760008573ffffffffffffffffffffffffffffffffffffffff1673ffffffffffffffffffffffffffffffffffffffff16815260200190815260200160002060008473ffffffffffffffffffffffffffffffffffffffff1673ffffffffffffffffffffffffffffffffffffffff16815260200190815260200160002060006101000a81548160ff0219169083151502179055508173ffffffffffffffffffffffffffffffffffffffff168373ffffffffffffffffffffffffffffffffffffffff167f17307eab39ab6107e8899845ad3d59bd9653f200f220920489ca2b5937696c318360405161307291906140a2565b60405180910390a3505050565b61308a8484846129dc565b6130968484848461331f565b6130d5576040517f08c379a00000000000000000000000000000000000000000000000000000000081526004016130cc906140ff565b60405180910390fd5b50505050565b6060600f80546130ea906148b5565b80601f0160208091040260200160405190810160405280929190818152602001828054613116906148b5565b80156131635780601f1061313857610100808354040283529160200191613163565b820191906000526020600020905b81548152906001019060200180831161314657829003601f168201915b5050505050905090565b606060008214156131b5576040518060400160405280600181526020017f30000000000000000000000000000000000000000000000000000000000000008152509050613315565b600082905060005b600082146131e75780806131d090614943565b915050600a826131e09190614586565b91506131bd565b60008167ffffffffffffffff811115613229577f4e487b7100000000000000000000000000000000000000000000000000000000600052604160045260246000fd5b6040519080825280601f01601f19166020018201604052801561325b5781602001600182028036833780820191505090505b5090505b6000851461330e57600182613274919061470d565b9150600a8561328391906149b9565b603061328f91906144c1565b60f81b8183815181106132cb577f4e487b7100000000000000000000000000000000000000000000000000000000600052603260045260246000fd5b60200101907effffffffffffffffffffffffffffffffffffffffffffffffffffffffffffff1916908160001a905350600a856133079190614586565b945061325f565b8093505050505b919050565b505050565b60006133408473ffffffffffffffffffffffffffffffffffffffff166134b6565b156134a9578373ffffffffffffffffffffffffffffffffffffffff1663150b7a02613369612042565b8786866040518563ffffffff1660e01b815260040161338b9493929190613fc6565b602060405180830381600087803b1580156133a557600080fd5b505af19250505080156133d657506040513d601f19601f820116820180604052508101906133d391906138db565b60015b613459573d8060008114613406576040519150601f19603f3d011682016040523d82523d6000602084013e61340b565b606091505b50600081511415613451576040517f08c379a0000000000000000000000000000000000000000000000000000000008152600401613448906140ff565b60405180910390fd5b805181602001fd5b63150b7a0260e01b7bffffffffffffffffffffffffffffffffffffffffffffffffffffffff1916817bffffffffffffffffffffffffffffffffffffffffffffffffffffffff1916149150506134ae565b600190505b949350505050565b6000808273ffffffffffffffffffffffffffffffffffffffff163b119050919050565b8280546134e5906148b5565b90600052602060002090601f016020900481019282613507576000855561354e565b82601f1061352057805160ff191683800117855561354e565b8280016001018555821561354e579182015b8281111561354d578251825591602001919060010190613532565b5b50905061355b919061358b565b5090565b60405180604001604052806060815260200160006fffffffffffffffffffffffffffffffff1681525090565b5b808211156135a457600081600090555060010161358c565b5090565b60006135bb6135b68461439a565b614375565b9050828152602081018484840111156135d357600080fd5b6135de848285614849565b509392505050565b60006135f96135f4846143cb565b614375565b90508281526020810184848401111561361157600080fd5b61361c848285614849565b509392505050565b60008135905061363381614fd9565b92915050565b60008135905061364881614ff0565b92915050565b60008135905061365d81615007565b92915050565b60008151905061367281615007565b92915050565b600082601f83011261368957600080fd5b81356136998482602086016135a8565b91505092915050565b600082601f8301126136b357600080fd5b81356136c38482602086016135e6565b91505092915050565b6000813590506136db8161501e565b92915050565b6000813590506136f081615035565b92915050565b6000813590506137058161504c565b92915050565b60006020828403121561371d57600080fd5b600061372b84828501613624565b91505092915050565b6000806040838503121561374757600080fd5b600061375585828601613624565b925050602061376685828601613624565b9150509250929050565b60008060006060848603121561378557600080fd5b600061379386828701613624565b93505060206137a486828701613624565b92505060406137b5868287016136e1565b9150509250925092565b600080600080608085870312156137d557600080fd5b60006137e387828801613624565b94505060206137f487828801613624565b9350506040613805878288016136e1565b925050606085013567ffffffffffffffff81111561382257600080fd5b61382e87828801613678565b91505092959194509250565b6000806040838503121561384d57600080fd5b600061385b85828601613624565b925050602061386c85828601613639565b9150509250929050565b6000806040838503121561388957600080fd5b600061389785828601613624565b92505060206138a8858286016136e1565b9150509250929050565b6000602082840312156138c457600080fd5b60006138d28482850161364e565b91505092915050565b6000602082840312156138ed57600080fd5b60006138fb84828501613663565b91505092915050565b60006020828403121561391657600080fd5b600082013567ffffffffffffffff81111561393057600080fd5b61393c848285016136a2565b91505092915050565b60008060006060848603121561395a57600080fd5b600084013567ffffffffffffffff81111561397457600080fd5b613980868287016136a2565b9350506020613991868287016136e1565b92505060406139a2868287016136e1565b9150509250925092565b600080600080608085870312156139c257600080fd5b600085013567ffffffffffffffff8111156139dc57600080fd5b6139e8878288016136a2565b94505060206139f9878288016136f6565b9350506040613a0a878288016136f6565b9250506060613a1b87828801613639565b91505092959194509250565b600060208284031215613a3957600080fd5b6000613a47848285016136cc565b91505092915050565b600060208284031215613a6257600080fd5b6000613a70848285016136e1565b91505092915050565b60008060408385031215613a8c57600080fd5b6000613a9a858286016136f6565b9250506020613aab858286016136f6565b9150509250929050565b6000613ac18383613ef4565b905092915050565b613ad281614775565b82525050565b6000613ae38261440c565b613aed818561443a565b935083602082028501613aff856143fc565b8060005b85811015613b3b5784840389528151613b1c8582613ab5565b9450613b278361442d565b925060208a01995050600181019050613b03565b50829750879550505050505092915050565b613b5681614787565b82525050565b6000613b6782614417565b613b71818561444b565b9350613b81818560208601614858565b613b8a81614aa6565b840191505092915050565b6000613ba082614422565b613baa818561445c565b9350613bba818560208601614858565b613bc381614aa6565b840191505092915050565b6000613bd982614422565b613be3818561446d565b9350613bf3818560208601614858565b613bfc81614aa6565b840191505092915050565b6000613c1282614422565b613c1c818561447e565b9350613c2c818560208601614858565b80840191505092915050565b6000613c45601f8361446d565b9150613c5082614ab7565b602082019050919050565b6000613c6860328361446d565b9150613c7382614ae0565b604082019050919050565b6000613c8b60268361446d565b9150613c9682614b2f565b604082019050919050565b6000613cae601c8361446d565b9150613cb982614b7e565b602082019050919050565b6000613cd160248361446d565b9150613cdc82614ba7565b604082019050919050565b6000613cf460198361446d565b9150613cff82614bf6565b602082019050919050565b6000613d17600f8361446d565b9150613d2282614c1f565b602082019050919050565b6000613d3a60298361446d565b9150613d4582614c48565b604082019050919050565b6000613d5d602c8361446d565b9150613d6882614c97565b604082019050919050565b6000613d8060388361446d565b9150613d8b82614ce6565b604082019050919050565b6000613da3602a8361446d565b9150613dae82614d35565b604082019050919050565b6000613dc660298361446d565b9150613dd182614d84565b604082019050919050565b6000613de960208361446d565b9150613df482614dd3565b602082019050919050565b6000613e0c602c8361446d565b9150613e1782614dfc565b604082019050919050565b6000613e2f60058361447e565b9150613e3a82614e4b565b600582019050919050565b6000613e5260208361446d565b9150613e5d82614e74565b602082019050919050565b6000613e7560298361446d565b9150613e8082614e9d565b604082019050919050565b6000613e98602f8361446d565b9150613ea382614eec565b604082019050919050565b6000613ebb60218361446d565b9150613ec682614f3b565b604082019050919050565b6000613ede60318361446d565b9150613ee982614f8a565b604082019050919050565b60006040830160008301518482036000860152613f118282613b95565b9150506020830151613f266020860182613f31565b508091505092915050565b613f3a816147bf565b82525050565b613f4981614837565b82525050565b613f58816147db565b82525050565b613f6781614809565b82525050565b613f7681614823565b82525050565b6000613f888285613c07565b9150613f948284613c07565b9150613f9f82613e22565b91508190509392505050565b6000602082019050613fc06000830184613ac9565b92915050565b6000608082019050613fdb6000830187613ac9565b613fe86020830186613ac9565b613ff56040830185613f5e565b81810360608301526140078184613b5c565b905095945050505050565b60006060820190506140276000830186613ac9565b6140346020830185613f5e565b6140416040830184613f6d565b949350505050565b600060608201905061405e6000830186613ac9565b61406b6020830185613f6d565b6140786040830184613f40565b949350505050565b6000602082019050818103600083015261409a8184613ad8565b905092915050565b60006020820190506140b76000830184613b4d565b92915050565b600060208201905081810360008301526140d78184613bce565b905092915050565b600060208201905081810360008301526140f881613c38565b9050919050565b6000602082019050818103600083015261411881613c5b565b9050919050565b6000602082019050818103600083015261413881613c7e565b9050919050565b6000602082019050818103600083015261415881613ca1565b9050919050565b6000602082019050818103600083015261417881613cc4565b9050919050565b6000602082019050818103600083015261419881613ce7565b9050919050565b600060208201905081810360008301526141b881613d0a565b9050919050565b600060208201905081810360008301526141d881613d2d565b9050919050565b600060208201905081810360008301526141f881613d50565b9050919050565b6000602082019050818103600083015261421881613d73565b9050919050565b6000602082019050818103600083015261423881613d96565b9050919050565b6000602082019050818103600083015261425881613db9565b9050919050565b6000602082019050818103600083015261427881613ddc565b9050919050565b6000602082019050818103600083015261429881613dff565b9050919050565b600060208201905081810360008301526142b881613e45565b9050919050565b600060208201905081810360008301526142d881613e68565b9050919050565b600060208201905081810360008301526142f881613e8b565b9050919050565b6000602082019050818103600083015261431881613eae565b9050919050565b6000602082019050818103600083015261433881613ed1565b9050919050565b60006020820190506143546000830184613f4f565b92915050565b600060208201905061436f6000830184613f5e565b92915050565b600061437f614390565b905061438b82826148e7565b919050565b6000604051905090565b600067ffffffffffffffff8211156143b5576143b4614a77565b5b6143be82614aa6565b9050602081019050919050565b600067ffffffffffffffff8211156143e6576143e5614a77565b5b6143ef82614aa6565b9050602081019050919050565b6000819050602082019050919050565b600081519050919050565b600081519050919050565b600081519050919050565b6000602082019050919050565b600082825260208201905092915050565b600082825260208201905092915050565b600082825260208201905092915050565b600082825260208201905092915050565b600081905092915050565b6000614494826147db565b915061449f836147db565b92508261ffff038211156144b6576144b56149ea565b5b828201905092915050565b60006144cc82614809565b91506144d783614809565b9250827fffffffffffffffffffffffffffffffffffffffffffffffffffffffffffffffff0382111561450c5761450b6149ea565b5b828201905092915050565b600061452282614823565b915061452d83614823565b92508267ffffffffffffffff0382111561454a576145496149ea565b5b828201905092915050565b6000614560826147bf565b915061456b836147bf565b92508261457b5761457a614a19565b5b828204905092915050565b600061459182614809565b915061459c83614809565b9250826145ac576145ab614a19565b5b828204905092915050565b60006145c282614813565b91506145cd83614813565b9250826145dd576145dc614a19565b5b828204905092915050565b60006145f382614823565b91506145fe83614823565b92508261460e5761460d614a19565b5b828204905092915050565b6000614624826147bf565b915061462f836147bf565b9250816fffffffffffffffffffffffffffffffff0483118215151615614658576146576149ea565b5b828202905092915050565b600061466e82614823565b915061467983614823565b92508167ffffffffffffffff048311821515161561469a576146996149ea565b5b828202905092915050565b60006146b0826147bf565b91506146bb836147bf565b9250828210156146ce576146cd6149ea565b5b828203905092915050565b60006146e4826147db565b91506146ef836147db565b925082821015614702576147016149ea565b5b828203905092915050565b600061471882614809565b915061472383614809565b925082821015614736576147356149ea565b5b828203905092915050565b600061474c82614823565b915061475783614823565b92508282101561476a576147696149ea565b5b828203905092915050565b6000614780826147e9565b9050919050565b60008115159050919050565b60007fffffffff0000000000000000000000000000000000000000000000000000000082169050919050565b60006fffffffffffffffffffffffffffffffff82169050919050565b600061ffff82169050919050565b600073ffffffffffffffffffffffffffffffffffffffff82169050919050565b6000819050919050565b600063ffffffff82169050919050565b600067ffffffffffffffff82169050919050565b6000614842826147bf565b9050919050565b82818337600083830152505050565b60005b8381101561487657808201518184015260208101905061485b565b83811115614885576000848401525b50505050565b6000614896826147db565b915060008214156148aa576148a96149ea565b5b600182039050919050565b600060028204905060018216806148cd57607f821691505b602082108114156148e1576148e0614a48565b5b50919050565b6148f082614aa6565b810181811067ffffffffffffffff8211171561490f5761490e614a77565b5b80604052505050565b6000614923826147db565b915061ffff821415614938576149376149ea565b5b600182019050919050565b600061494e82614809565b91507fffffffffffffffffffffffffffffffffffffffffffffffffffffffffffffffff821415614981576149806149ea565b5b600182019050919050565b600061499782614813565b915063ffffffff8214156149ae576149ad6149ea565b5b600182019050919050565b60006149c482614809565b91506149cf83614809565b9250826149df576149de614a19565b5b828206905092915050565b7f4e487b7100000000000000000000000000000000000000000000000000000000600052601160045260246000fd5b7f4e487b7100000000000000000000000000000000000000000000000000000000600052601260045260246000fd5b7f4e487b7100000000000000000000000000000000000000000000000000000000600052602260045260246000fd5b7f4e487b7100000000000000000000000000000000000000000000000000000000600052604160045260246000fd5b6000601f19601f8301169050919050565b7f4d696e74696e672069732063757272656e746c79206e6f742061637469766500600082015250565b7f4552433732313a207472616e7366657220746f206e6f6e20455243373231526560008201527f63656976657220696d706c656d656e7465720000000000000000000000000000602082015250565b7f4f776e61626c653a206e6577206f776e657220697320746865207a65726f206160008201527f6464726573730000000000000000000000000000000000000000000000000000602082015250565b7f4552433732313a20746f6b656e20616c7265616479206d696e74656400000000600082015250565b7f4552433732313a207472616e7366657220746f20746865207a65726f2061646460008201527f7265737300000000000000000000000000000000000000000000000000000000602082015250565b7f4552433732313a20617070726f766520746f2063616c6c657200000000000000600082015250565b7f6e6f7420656e6f7567682066616d650000000000000000000000000000000000600082015250565b7f74686973206d65737361676520776173206e6576657220756e6c6f636b65642060008201527f776974682066616d650000000000000000000000000000000000000000000000602082015250565b7f4552433732313a206f70657261746f7220717565727920666f72206e6f6e657860008201527f697374656e7420746f6b656e0000000000000000000000000000000000000000602082015250565b7f4552433732313a20617070726f76652063616c6c6572206973206e6f74206f7760008201527f6e6572206e6f7220617070726f76656420666f7220616c6c0000000000000000602082015250565b7f4552433732313a2062616c616e636520717565727920666f7220746865207a6560008201527f726f206164647265737300000000000000000000000000000000000000000000602082015250565b7f4552433732313a206f776e657220717565727920666f72206e6f6e657869737460008201527f656e7420746f6b656e0000000000000000000000000000000000000000000000602082015250565b7f4552433732313a206d696e7420746f20746865207a65726f2061646472657373600082015250565b7f4552433732313a20617070726f76656420717565727920666f72206e6f6e657860008201527f697374656e7420746f6b656e0000000000000000000000000000000000000000602082015250565b7f2e6a736f6e000000000000000000000000000000000000000000000000000000600082015250565b7f4f776e61626c653a2063616c6c6572206973206e6f7420746865206f776e6572600082015250565b7f4552433732313a207472616e73666572206f6620746f6b656e2074686174206960008201527f73206e6f74206f776e0000000000000000000000000000000000000000000000602082015250565b7f4552433732314d657461646174613a2055524920717565727920666f72206e6f60008201527f6e6578697374656e7420746f6b656e0000000000000000000000000000000000602082015250565b7f4552433732313a20617070726f76616c20746f2063757272656e74206f776e6560008201527f7200000000000000000000000000000000000000000000000000000000000000602082015250565b7f4552433732313a207472616e736665722063616c6c6572206973206e6f74206f60008201527f776e6572206e6f7220617070726f766564000000000000000000000000000000602082015250565b614fe281614775565b8114614fed57600080fd5b50565b614ff981614787565b811461500457600080fd5b50565b61501081614793565b811461501b57600080fd5b50565b615027816147bf565b811461503257600080fd5b50565b61503e81614809565b811461504957600080fd5b50565b61505581614813565b811461506057600080fd5b5056fea264697066735822122039b3caffd5fed51b5246ce1ee2a49a02178bfdea1f12ddd36742b9d633bf94b564736f6c63430008010033",
  "immutableReferences": {},
  "source": "//SPDX-License-Identifier: MIT\r\n\r\npragma solidity ^0.8.0;\r\nimport \"@openzeppelin/contracts/token/ERC721/IERC721.sol\";\r\nimport \"@openzeppelin/contracts/token/ERC721/IERC721Receiver.sol\";\r\nimport \"@openzeppelin/contracts/token/ERC721/extensions/IERC721Metadata.sol\";\r\nimport \"@openzeppelin/contracts/utils/Address.sol\";\r\nimport \"@openzeppelin/contracts/utils/Context.sol\";\r\nimport \"@openzeppelin/contracts/utils/Strings.sol\";\r\nimport \"@openzeppelin/contracts/utils/introspection/ERC165.sol\";\r\nimport \"@openzeppelin/contracts/access/Ownable.sol\";\r\n\r\n/**\r\n * @dev Implementation of https://eips.ethereum.org/EIPS/eip-721[ERC721] Non-Fungible Token Standard, including\r\n * the Metadata extension, but not including the Enumerable extension, which is available separately as\r\n * {ERC721Enumerable}.\r\n */\r\ncontract GeoFingerToken is Context, ERC165, IERC721, IERC721Metadata, Ownable {\r\n    using Address for address;\r\n    using Strings for uint256;\r\n\r\n    constructor() {\r\n        _name = \"GeoFingerToken\";\r\n        _symbol = \"gft\";\r\n\r\n        _isMintingActive = true;\r\n    }\r\n\r\n    struct MessageContainer {\r\n        string message;\r\n        uint128 tokenId;\r\n    }\r\n\r\n    //ERC721\r\n\r\n    // Mapping from SpotId to TokenId\r\n    mapping(uint64 => uint256) private _claimedSpots;\r\n\r\n    // Mapping owner to messageTokenId\r\n    mapping(uint128 => address) private _messageCreators;\r\n\r\n    // Mapping of Spots to message coin balances\r\n    mapping(uint64 => mapping(address => uint16)) internal _spotWallet;\r\n\r\n    // Mapping of owners to famecoints\r\n    mapping(address => uint16) private _fameWallet;\r\n\r\n    // Mapping from token ID to approved address\r\n    mapping(uint256 => address) private _tokenApprovals;\r\n\r\n    // Mapping from token ID to approved address\r\n    mapping(address => mapping(uint128 => bool)) private _ownerUnlockedMessages;\r\n\r\n    // Mapping from owner to operator approvals\r\n    mapping(address => mapping(address => bool)) internal _operatorApprovals;\r\n\r\n    string private _name;\r\n\r\n    string private _symbol;\r\n\r\n    bool private _isMintingActive = true;\r\n\r\n    //fileHash to txHash\r\n    //spotId to message array\r\n    mapping(uint64 => string[]) _spotMessages;\r\n\r\n    //messagetokenid to vote amt\r\n    mapping(uint128 => uint32) _voteWallet;\r\n\r\n    //future plans\r\n    uint32 _maxMessageTokenPerSpot = 10000000;\r\n\r\n    address[] internal _owners;\r\n    string _baseURL;\r\n\r\n    event MintedHashMapEvidence(\r\n        address creator,\r\n        uint256 fromHash,\r\n        uint256 toHash,\r\n        uint256 tokenId\r\n    );\r\n    event AssignedAllowedServiceEvent(address sender, address addressToAllow);\r\n    event UnassignedAllowedServiceEvent(\r\n        address sender,\r\n        address addressToUnassign\r\n    );\r\n    event MintedMessage(address sender, uint64 spotId, uint256 messageTokenId);\r\n    event SpotClaimed(address sender, uint256 tokenId, uint64 spotId);\r\n\r\n    function setBaseURI(string memory uri) public onlyOwner {\r\n        _baseURL = uri;\r\n    }\r\n\r\n    function getIsMintingActive() public view returns (bool) {\r\n        return _isMintingActive;\r\n    }\r\n\r\n    function setIsMintingActive() public onlyOwner {\r\n        _isMintingActive = true;\r\n    }\r\n\r\n    function setIsMintingInactive() public onlyOwner {\r\n        _isMintingActive = false;\r\n    }\r\n\r\n\r\n    function mintMessage(\r\n        string memory uniCodeMessage,\r\n        uint32 longitude,\r\n        uint32 latitude,\r\n        bool autoConvertFame\r\n    ) public {\r\n        require(_isMintingActive, \"Minting is currently not active\");\r\n        require(bytes(uniCodeMessage).length > 0);\r\n\r\n        uint64 spotId = _getSpotIdForCoordinates(longitude, latitude);\r\n\r\n        if (!_existsSpot(spotId)) {\r\n            uint256 tokenId = _owners.length;\r\n            _mint(_msgSender(), tokenId);\r\n            _spotWallet[spotId][_msgSender()]=0;\r\n            \r\n            _addMessageCoin(spotId);\r\n            \r\n            _addFameCoin(_msgSender(), 20);\r\n            _claimedSpots[spotId] = tokenId;\r\n            emit SpotClaimed(_msgSender(), tokenId, spotId);\r\n        }\r\n\r\n        _mintMessageOnSpot(spotId, uniCodeMessage, autoConvertFame);\r\n    }\r\n\r\n    //this returns a teaser of the messages\r\n    function getTeasedMessagesForSpot(uint32 longitude, uint32 latitude)\r\n        public\r\n        view\r\n        returns (MessageContainer[] memory)\r\n    {\r\n        uint64 spotId = _getSpotIdForCoordinates(longitude, latitude);\r\n        string[] memory messagesForSpot = _spotMessages[spotId];\r\n        MessageContainer[] memory messages = new MessageContainer[](\r\n            messagesForSpot.length\r\n        );\r\n\r\n        for (uint256 i = 0; i < messagesForSpot.length; i++) {\r\n            messages[i] = MessageContainer(\r\n                _substring(\r\n                    messagesForSpot[i],\r\n                    0,\r\n                    (uint16(bytes(messagesForSpot[i]).length / 10)) + 3\r\n                )\r\n                ,\r\n                uint128(i + uint128(spotId) * _maxMessageTokenPerSpot)\r\n            );\r\n        }\r\n\r\n        return messages;\r\n    }\r\n\r\n    //this is important for fame distribution, glory leads to glamour\r\n    function unlockMessage(uint128 messageTokenId)\r\n        public\r\n    {\r\n        uint64 spotId = _getSpotIdFromMessageTokenId(messageTokenId);\r\n        require(_fameWallet[_msgSender()] > 0);\r\n        require(_spotMessages[spotId].length > 0);\r\n        _fameWallet[_msgSender()]--;\r\n\r\n        _addFameCoin(_messageCreators[messageTokenId], 2); // an upvote earns you 1 famecoin1\r\n        _addFameCoin(_owners[_claimedSpots[spotId]], 1); // an upvote earns the spot owner 1 famecoin\r\n\r\n\r\n        _ownerUnlockedMessages[_msgSender()][messageTokenId] = true;\r\n\r\n    }\r\n\r\n    function getUnlockedMessage(uint128 messageTokenId) public view returns (string memory)\r\n    {\r\n        require(_ownerUnlockedMessages[_msgSender()][messageTokenId] == true, 'this message was never unlocked with fame');\r\n        return _spotMessages[_getSpotIdFromMessageTokenId(messageTokenId)][_getMessageIndexFromMessageTokenId(messageTokenId)];\r\n    }\r\n\r\n\r\n    function upvoteMessage(uint128 messageTokenId) public {\r\n        uint64 spotId = _getSpotIdFromMessageTokenId(messageTokenId);\r\n        require(_fameWallet[_msgSender()] > 0);\r\n        require(\r\n            _spotMessages[spotId].length >\r\n                _getMessageIndexFromMessageTokenId(messageTokenId)\r\n        );\r\n        _fameWallet[_msgSender()]--;\r\n        _voteWallet[messageTokenId]++;\r\n\r\n        _addFameCoin(\r\n            _messageCreators[messageTokenId],\r\n            ((uint16)(_voteWallet[messageTokenId] / 10)) + 1\r\n        ); // an upvote earns you 1 famecoins and the amount of upvotes divided by ten\r\n        _addFameCoin(_owners[_claimedSpots[spotId]], 1); // an upvote earns the spot owner 1 famecoin\r\n    }\r\n\r\n    function convertFameToMessageCoin(uint32 longitude, uint32 latitude)\r\n        public\r\n    {\r\n        //for now, non-claimed spots can have messagecoins, that means you would be able to create messages for it whenever it exists\r\n        uint64 spotId = _getSpotIdForCoordinates(longitude, latitude);\r\n        _convertFameToMessageCoin(spotId);\r\n    }\r\n\r\n    function getMessageCoinBalanceForSpot(uint32 longitude, uint32 latitude)\r\n        public\r\n        view\r\n        returns (uint16)\r\n    {\r\n        uint64 spotId = _getSpotIdForCoordinates(longitude, latitude);\r\n        return _getMessageCoinBalanceForSpot(spotId);\r\n    }\r\n\r\n    function getFameCoinBalance() public view returns (uint16) {\r\n        return _fameWallet[_msgSender()];\r\n    }\r\n\r\n\r\n    function _getSpotIdForCoordinates(uint32 longitude, uint32 latitude)\r\n        internal\r\n        pure\r\n        returns (uint64)\r\n    {\r\n        //app has to transmit the last 6 characters after decimal point of coordinate\r\n        uint64 longAngle = uint64(longitude / 1000000); //starting from a point on the poles, draw lines in this angle along the longitude of earth\r\n        uint64 longDecimal100sqm = uint64((longitude - (longAngle * 1000000)) / 100);\r\n        //longDecimal100sqm needs a transformation --> 10/90 * angel * 100 === 100m for a millionth decimal digit //adapt to changing spot sizes when nearing the poles (imagine a grid on the planet)\r\n\r\n        uint64 longSpot = longAngle * 1000000 + longDecimal100sqm * 100;\r\n        uint64 latAngle = uint64(latitude / 1000000);\r\n        uint64 latDecimal100sqm = uint64((latitude - latAngle * 1000000) / 100); //size of a grid element\r\n        uint64 latSpot = latAngle * 1000000 + latDecimal100sqm * 100;\r\n        uint64 spotId = longSpot * 1000000000 + latSpot; //longSpot is shifted left and latSpot is added\r\n        return spotId;\r\n    }\r\n\r\n    function _existsSpot(uint64 spotId) internal view returns (bool) {\r\n        return _claimedSpots[spotId] != 0;\r\n    }\r\n\r\n    function _addMessageCoin(uint64 spotId) internal {\r\n         _spotWallet[spotId][_msgSender()]  =  uint16(_spotWallet[spotId][_msgSender()]  +1);\r\n    }\r\n\r\n    function _substring(\r\n        string memory str,\r\n        uint256 startIndex,\r\n        uint256 endIndex\r\n    ) public pure returns (string memory) {\r\n        bytes memory strBytes = bytes(str);\r\n        bytes memory result = new bytes(endIndex - startIndex);\r\n        for (uint256 i = startIndex; i < endIndex; i++) {\r\n            result[i - startIndex] = strBytes[i];\r\n        }\r\n        return string(result);\r\n    }\r\n\r\n\r\n    function _getMessageIndexFromMessageTokenId(uint128 messageTokenId)\r\n        internal\r\n        view\r\n        returns (uint32)\r\n    {\r\n        return\r\n            uint32(messageTokenId - uint128(messageTokenId / _maxMessageTokenPerSpot) * _maxMessageTokenPerSpot);\r\n    }\r\n\r\n    function _convertFameToMessageCoin(uint64 spotId) internal {\r\n        uint16 cost = uint16(20 + uint16(_spotMessages[spotId].length / 10));\r\n        require(_fameWallet[_msgSender()] >= cost,'not enough fame');\r\n\r\n        _fameWallet[_msgSender()] -= cost; // means, 2 messages in this spot cost nothing extra, 20 will cost 2 extra, 100 will cost 10 extra\r\n        _spotWallet[spotId][_msgSender()]++;\r\n    }\r\n\r\n    function _getSpotIdFromMessageTokenId(uint128 messageTokenId)\r\n        internal\r\n        view\r\n        returns (uint64)\r\n    {\r\n        return (uint64)(messageTokenId / _maxMessageTokenPerSpot);\r\n    }\r\n\r\n    function _addFameCoin(address receiver, uint16 amt) internal {\r\n        _fameWallet[receiver] = _fameWallet[receiver] + amt;\r\n    }\r\n\r\n    function _mintMessageOnSpot(\r\n        uint64 spotId,\r\n        string memory message,\r\n        bool autoConvertFame\r\n    ) internal {\r\n        if (\r\n            autoConvertFame == true &&\r\n            _getMessageCoinBalanceForSpot(spotId) == 0\r\n        ) {\r\n            _convertFameToMessageCoin(spotId);\r\n        }\r\n\r\n        require(_getMessageCoinBalanceForSpot(spotId) > 0);\r\n\r\n        uint128 messageTokenId = uint128(\r\n            (_spotMessages[spotId].length) + uint128(spotId) * _maxMessageTokenPerSpot\r\n        );\r\n        _spotMessages[spotId].push(message);\r\n        _voteWallet[messageTokenId] = 0;\r\n        _spotWallet[spotId][_msgSender()]--;\r\n        _messageCreators[messageTokenId] = _msgSender();\r\n        emit MintedMessage(_msgSender(), spotId, messageTokenId);\r\n    }\r\n\r\n    function _getMessageCoinBalanceForSpot(uint64 spotId)\r\n        internal\r\n        view\r\n        returns (uint16)\r\n    {\r\n        return _spotWallet[spotId][_msgSender()];\r\n    }\r\n\r\n\r\n    //ERC721 #################################\r\n\r\n    function totalSupply() public view returns (uint256) {\r\n        return _owners.length;\r\n    }\r\n\r\n    /**\r\n     * @dev See {IERC165-supportsInterface}.\r\n     */\r\n    function supportsInterface(bytes4 interfaceId)\r\n        public\r\n        view\r\n        virtual\r\n        override(ERC165, IERC165)\r\n        returns (bool)\r\n    {\r\n        return\r\n            interfaceId == type(IERC721).interfaceId ||\r\n            interfaceId == type(IERC721Metadata).interfaceId ||\r\n            super.supportsInterface(interfaceId);\r\n    }\r\n\r\n    /**\r\n     * @dev See {IERC721-balanceOf}.\r\n     */\r\n    function balanceOf(address owner)\r\n        public\r\n        view\r\n        virtual\r\n        override\r\n        returns (uint256)\r\n    {\r\n        require(\r\n            owner != address(0),\r\n            \"ERC721: balance query for the zero address\"\r\n        );\r\n\r\n        uint256 amt = 0;\r\n        for (uint256 i = 0; i < _owners.length; i++) {\r\n            if (_owners[i] == owner) {\r\n                amt++;\r\n            }\r\n        }\r\n        return amt;\r\n    }\r\n\r\n    /**\r\n     * @dev See {IERC721-ownerOf}.\r\n     */\r\n    function ownerOf(uint256 tokenId)\r\n        public\r\n        view\r\n        virtual\r\n        override\r\n        returns (address)\r\n    {\r\n        address owner = _owners[tokenId];\r\n        require(\r\n            owner != address(0),\r\n            \"ERC721: owner query for nonexistent token\"\r\n        );\r\n        return owner;\r\n    }\r\n\r\n    /**\r\n     * @dev See {IERC721Metadata-name}.\r\n     */\r\n    function name() public view virtual override returns (string memory) {\r\n        return _name;\r\n    }\r\n\r\n    /**\r\n     * @dev See {IERC721Metadata-symbol}.\r\n     */\r\n    function symbol() public view virtual override returns (string memory) {\r\n        return _symbol;\r\n    }\r\n\r\n    /**\r\n     * @dev See {IERC721Metadata-tokenURI}.\r\n     */\r\n    function tokenURI(uint256 tokenId)\r\n        public\r\n        view\r\n        virtual\r\n        override\r\n        returns (string memory)\r\n    {\r\n        require(\r\n            _exists(tokenId),\r\n            \"ERC721Metadata: URI query for nonexistent token\"\r\n        );\r\n\r\n        string memory baseURI = _baseURI();\r\n        return\r\n            bytes(baseURI).length > 0\r\n                ? string(abi.encodePacked(baseURI, tokenId.toString(), \".json\"))\r\n                : \"\";\r\n    }\r\n\r\n    /**\r\n     * @dev Base URI for computing {tokenURI}. If set, the resulting URI for each\r\n     * token will be the concatenation of the `baseURI` and the `tokenId`. Empty\r\n     * by default, can be overriden in child contracts.\r\n     */\r\n    function _baseURI() internal view virtual returns (string memory) {\r\n        return _baseURL;\r\n    }\r\n\r\n    /**\r\n     * @dev See {IERC721-approve}.\r\n     */\r\n    function approve(address to, uint256 tokenId) public virtual override {\r\n        address owner = GeoFingerToken.ownerOf(tokenId);\r\n        require(to != owner, \"ERC721: approval to current owner\");\r\n\r\n        require(\r\n            _msgSender() == owner || isApprovedForAll(owner, _msgSender()),\r\n            \"ERC721: approve caller is not owner nor approved for all\"\r\n        );\r\n\r\n        _approve(to, tokenId);\r\n    }\r\n\r\n    /**\r\n     * @dev See {IERC721-getApproved}.\r\n     */\r\n    function getApproved(uint256 tokenId)\r\n        public\r\n        view\r\n        virtual\r\n        override\r\n        returns (address)\r\n    {\r\n        require(\r\n            _exists(tokenId),\r\n            \"ERC721: approved query for nonexistent token\"\r\n        );\r\n\r\n        return _tokenApprovals[tokenId];\r\n    }\r\n\r\n    /**\r\n     * @dev See {IERC721-setApprovalForAll}.\r\n     */\r\n    function setApprovalForAll(address operator, bool approved)\r\n        public\r\n        virtual\r\n        override\r\n    {\r\n        _setApprovalForAll(_msgSender(), operator, approved);\r\n    }\r\n\r\n    /**\r\n     * @dev See {IERC721-isApprovedForAll}.\r\n     */\r\n    function isApprovedForAll(address owner, address operator)\r\n        public\r\n        view\r\n        virtual\r\n        override\r\n        returns (bool)\r\n    {\r\n        return _operatorApprovals[owner][operator];\r\n    }\r\n\r\n    /**\r\n     * @dev See {IERC721-transferFrom}.\r\n     */\r\n    function transferFrom(\r\n        address from,\r\n        address to,\r\n        uint256 tokenId\r\n    ) public virtual override {\r\n        //solhint-disable-next-line max-line-length\r\n        require(\r\n            _isApprovedOrOwner(_msgSender(), tokenId),\r\n            \"ERC721: transfer caller is not owner nor approved\"\r\n        );\r\n\r\n        _transfer(from, to, tokenId);\r\n    }\r\n\r\n    /**\r\n     * @dev See {IERC721-safeTransferFrom}.\r\n     */\r\n    function safeTransferFrom(\r\n        address from,\r\n        address to,\r\n        uint256 tokenId\r\n    ) public virtual override {\r\n        safeTransferFrom(from, to, tokenId, \"\");\r\n    }\r\n\r\n    /**\r\n     * @dev See {IERC721-safeTransferFrom}.\r\n     */\r\n    function safeTransferFrom(\r\n        address from,\r\n        address to,\r\n        uint256 tokenId,\r\n        bytes memory _data\r\n    ) public virtual override {\r\n        require(\r\n            _isApprovedOrOwner(_msgSender(), tokenId),\r\n            \"ERC721: transfer caller is not owner nor approved\"\r\n        );\r\n        _safeTransfer(from, to, tokenId, _data);\r\n    }\r\n\r\n    /**\r\n     * @dev Safely transfers `tokenId` token from `from` to `to`, checking first that contract recipients\r\n     * are aware of the ERC721 protocol to prevent tokens from being forever locked.\r\n     *\r\n     * `_data` is additional data, it has no specified format and it is sent in call to `to`.\r\n     *\r\n     * This internal function is equivalent to {safeTransferFrom}, and can be used to e.g.\r\n     * implement alternative mechanisms to perform token transfer, such as signature-based.\r\n     *\r\n     * Requirements:\r\n     *\r\n     * - `from` cannot be the zero address.\r\n     * - `to` cannot be the zero address.\r\n     * - `tokenId` token must exist and be owned by `from`.\r\n     * - If `to` refers to a smart contract, it must implement {IERC721Receiver-onERC721Received}, which is called upon a safe transfer.\r\n     *\r\n     * Emits a {Transfer} event.\r\n     */\r\n    function _safeTransfer(\r\n        address from,\r\n        address to,\r\n        uint256 tokenId,\r\n        bytes memory _data\r\n    ) internal virtual {\r\n        _transfer(from, to, tokenId);\r\n        require(\r\n            _checkOnERC721Received(from, to, tokenId, _data),\r\n            \"ERC721: transfer to non ERC721Receiver implementer\"\r\n        );\r\n    }\r\n\r\n    /**\r\n     * @dev Returns whether `tokenId` exists.\r\n     *\r\n     * Tokens can be managed by their owner or approved accounts via {approve} or {setApprovalForAll}.\r\n     *\r\n     * Tokens start existing when they are minted (`_mint`),\r\n     * and stop existing when they are burned (`_burn`).\r\n     */\r\n    function _exists(uint256 tokenId) internal view virtual returns (bool) {\r\n        return _owners.length < tokenId; //owner length is the amt of existing tokens, including burned tokens\r\n    }\r\n\r\n    /**\r\n     * @dev Returns whether `spender` is allowed to manage `tokenId`.\r\n     *\r\n     * Requirements:\r\n     *\r\n     * - `tokenId` must exist.\r\n     */\r\n    function _isApprovedOrOwner(address spender, uint256 tokenId)\r\n        internal\r\n        view\r\n        virtual\r\n        returns (bool)\r\n    {\r\n        require(\r\n            _exists(tokenId),\r\n            \"ERC721: operator query for nonexistent token\"\r\n        );\r\n        address owner = GeoFingerToken.ownerOf(tokenId);\r\n        return (spender == owner ||\r\n            getApproved(tokenId) == spender ||\r\n            isApprovedForAll(owner, spender));\r\n    }\r\n\r\n    /**\r\n     * @dev Safely mints `tokenId` and transfers it to `to`.\r\n     *\r\n     * Requirements:\r\n     *\r\n     * - `tokenId` must not exist.\r\n     * - If `to` refers to a smart contract, it must implement {IERC721Receiver-onERC721Received}, which is called upon a safe transfer.\r\n     *\r\n     * Emits a {Transfer} event.\r\n     */\r\n    function _safeMint(address to, uint256 tokenId) internal virtual {\r\n        _safeMint(to, tokenId, \"\");\r\n    }\r\n\r\n    /**\r\n     * @dev Same as {xref-ERC721-_safeMint-address-uint256-}[`_safeMint`], with an additional `data` parameter which is\r\n     * forwarded in {IERC721Receiver-onERC721Received} to contract recipients.\r\n     */\r\n    function _safeMint(\r\n        address to,\r\n        uint256 tokenId,\r\n        bytes memory _data\r\n    ) internal virtual {\r\n        _mint(to, tokenId);\r\n        require(\r\n            _checkOnERC721Received(address(0), to, tokenId, _data),\r\n            \"ERC721: transfer to non ERC721Receiver implementer\"\r\n        );\r\n    }\r\n\r\n    /**\r\n     * @dev Mints `tokenId` and transfers it to `to`.\r\n     *\r\n     * WARNING: Usage of this method is discouraged, use {_safeMint} whenever possible\r\n     *\r\n     * Requirements:\r\n     *\r\n     * - `tokenId` must not exist.\r\n     * - `to` cannot be the zero address.\r\n     *\r\n     * Emits a {Transfer} event.\r\n     */\r\n    function _mint(address to, uint256 tokenId) internal virtual {\r\n        require(to != address(0), \"ERC721: mint to the zero address\");\r\n        require(!_exists(tokenId), \"ERC721: token already minted\");\r\n\r\n        _beforeTokenTransfer(address(0), to, tokenId);\r\n        _owners.push(to);\r\n\r\n        emit Transfer(address(0), to, tokenId);\r\n    }\r\n\r\n    /**\r\n     * @dev Destroys `tokenId`.\r\n     * The approval is cleared when the token is burned.\r\n     *\r\n     * Requirements:\r\n     *\r\n     * - `tokenId` must exist.\r\n     *\r\n     * Emits a {Transfer} event.\r\n     */\r\n    function _burn(uint256 tokenId) internal virtual {\r\n        address owner = GeoFingerToken.ownerOf(tokenId);\r\n\r\n        _beforeTokenTransfer(owner, address(0), tokenId);\r\n\r\n        // Clear approvals\r\n        _approve(address(0), tokenId);\r\n\r\n        _owners[tokenId] = address(0);\r\n\r\n        emit Transfer(owner, address(0), tokenId);\r\n    }\r\n\r\n    /**\r\n     * @dev Transfers `tokenId` from `from` to `to`.\r\n     *  As opposed to {transferFrom}, this imposes no restrictions on msg.sender.\r\n     *\r\n     * Requirements:\r\n     *\r\n     * - `to` cannot be the zero address.\r\n     * - `tokenId` token must be owned by `from`.\r\n     *\r\n     * Emits a {Transfer} event.\r\n     */\r\n    function _transfer(\r\n        address from,\r\n        address to,\r\n        uint256 tokenId\r\n    ) internal virtual {\r\n        require(\r\n            GeoFingerToken.ownerOf(tokenId) == from,\r\n            \"ERC721: transfer of token that is not own\"\r\n        );\r\n        require(to != address(0), \"ERC721: transfer to the zero address\");\r\n\r\n        _beforeTokenTransfer(from, to, tokenId);\r\n\r\n        // Clear approvals from the previous owner\r\n        _approve(address(0), tokenId);\r\n\r\n        _owners[tokenId] = to;\r\n\r\n        emit Transfer(from, to, tokenId);\r\n    }\r\n\r\n    /**\r\n     * @dev Approve `to` to operate on `tokenId`\r\n     *\r\n     * Emits a {Approval} event.\r\n     */\r\n    function _approve(address to, uint256 tokenId) internal virtual {\r\n        _tokenApprovals[tokenId] = to;\r\n        emit Approval(GeoFingerToken.ownerOf(tokenId), to, tokenId);\r\n    }\r\n\r\n    /**\r\n     * @dev Approve `operator` to operate on all of `owner` tokens\r\n     *\r\n     * Emits a {ApprovalForAll} event.\r\n     */\r\n    function _setApprovalForAll(\r\n        address owner,\r\n        address operator,\r\n        bool approved\r\n    ) internal virtual {\r\n        require(owner != operator, \"ERC721: approve to caller\");\r\n        _operatorApprovals[owner][operator] = approved;\r\n        emit ApprovalForAll(owner, operator, approved);\r\n    }\r\n\r\n    /**\r\n     * @dev Internal function to invoke {IERC721Receiver-onERC721Received} on a target address.\r\n     * The call is not executed if the target address is not a contract.\r\n     *\r\n     * @param from address representing the previous owner of the given token ID\r\n     * @param to target address that will receive the tokens\r\n     * @param tokenId uint256 ID of the token to be transferred\r\n     * @param _data bytes optional data to send along with the call\r\n     * @return bool whether the call correctly returned the expected magic value\r\n     */\r\n    function _checkOnERC721Received(\r\n        address from,\r\n        address to,\r\n        uint256 tokenId,\r\n        bytes memory _data\r\n    ) private returns (bool) {\r\n        if (to.isContract()) {\r\n            try\r\n                IERC721Receiver(to).onERC721Received(\r\n                    _msgSender(),\r\n                    from,\r\n                    tokenId,\r\n                    _data\r\n                )\r\n            returns (bytes4 retval) {\r\n                return retval == IERC721Receiver.onERC721Received.selector;\r\n            } catch (bytes memory reason) {\r\n                if (reason.length == 0) {\r\n                    revert(\r\n                        \"ERC721: transfer to non ERC721Receiver implementer\"\r\n                    );\r\n                } else {\r\n                    assembly {\r\n                        revert(add(32, reason), mload(reason))\r\n                    }\r\n                }\r\n            }\r\n        } else {\r\n            return true;\r\n        }\r\n    }\r\n\r\n    /**\r\n     * @dev Hook that is called before any token transfer. This includes minting\r\n     * and burning.\r\n     *\r\n     * Calling conditions:\r\n     *\r\n     * - When `from` and `to` are both non-zero, ``from``'s `tokenId` will be\r\n     * transferred to `to`.\r\n     * - When `from` is zero, `tokenId` will be minted for `to`.\r\n     * - When `to` is zero, ``from``'s `tokenId` will be burned.\r\n     * - `from` and `to` are never both zero.\r\n     *\r\n     * To learn more about hooks, head to xref:ROOT:extending-contracts.adoc#using-hooks[Using Hooks].\r\n     */\r\n    function _beforeTokenTransfer(\r\n        address from,\r\n        address to,\r\n        uint256 tokenId\r\n    ) internal virtual {}\r\n}\r\n",
  "sourcePath": "/app/contracts/GeoFingerToken.sol",
  "compiler": {
    "name": "solc",
    "version": "0.8.1+commit.df193b15.Emscripten.clang"
  },
  "schemaVersion": "3.4.6",
  "updatedAt": "2022-06-12T07:50:17.478Z",
  "devdoc": {
    "details": "Implementation of https://eips.ethereum.org/EIPS/eip-721[ERC721] Non-Fungible Token Standard, including the Metadata extension, but not including the Enumerable extension, which is available separately as {ERC721Enumerable}.",
    "kind": "dev",
    "methods": {
      "approve(address,uint256)": {
        "details": "See {IERC721-approve}."
      },
      "balanceOf(address)": {
        "details": "See {IERC721-balanceOf}."
      },
      "getApproved(uint256)": {
        "details": "See {IERC721-getApproved}."
      },
      "isApprovedForAll(address,address)": {
        "details": "See {IERC721-isApprovedForAll}."
      },
      "name()": {
        "details": "See {IERC721Metadata-name}."
      },
      "owner()": {
        "details": "Returns the address of the current owner."
      },
      "ownerOf(uint256)": {
        "details": "See {IERC721-ownerOf}."
      },
      "renounceOwnership()": {
        "details": "Leaves the contract without owner. It will not be possible to call `onlyOwner` functions anymore. Can only be called by the current owner. NOTE: Renouncing ownership will leave the contract without an owner, thereby removing any functionality that is only available to the owner."
      },
      "safeTransferFrom(address,address,uint256)": {
        "details": "See {IERC721-safeTransferFrom}."
      },
      "safeTransferFrom(address,address,uint256,bytes)": {
        "details": "See {IERC721-safeTransferFrom}."
      },
      "setApprovalForAll(address,bool)": {
        "details": "See {IERC721-setApprovalForAll}."
      },
      "supportsInterface(bytes4)": {
        "details": "See {IERC165-supportsInterface}."
      },
      "symbol()": {
        "details": "See {IERC721Metadata-symbol}."
      },
      "tokenURI(uint256)": {
        "details": "See {IERC721Metadata-tokenURI}."
      },
      "transferFrom(address,address,uint256)": {
        "details": "See {IERC721-transferFrom}."
      },
      "transferOwnership(address)": {
        "details": "Transfers ownership of the contract to a new account (`newOwner`). Can only be called by the current owner."
      }
    },
    "version": 1
  },
  "userdoc": {
    "kind": "user",
    "methods": {},
    "version": 1
  }
}